{
  "contractName": "Benzin",
  "abi": [
    {
      "constant": true,
      "inputs": [
        {
          "name": "",
          "type": "address"
        }
      ],
      "name": "publishers",
      "outputs": [
        {
          "name": "length",
          "type": "uint256"
        },
        {
          "name": "tipjar",
          "type": "uint256"
        }
      ],
      "payable": false,
      "stateMutability": "view",
      "type": "function",
      "signature": "0x0a4d85cd"
    },
    {
      "constant": false,
      "inputs": [
        {
          "name": "_ipfsHash",
          "type": "string"
        },
        {
          "name": "_title",
          "type": "string"
        },
        {
          "name": "_timestamp",
          "type": "uint256"
        },
        {
          "name": "_size",
          "type": "uint256"
        },
        {
          "name": "_tipjar",
          "type": "uint256"
        },
        {
          "name": "_views",
          "type": "uint256"
        },
        {
          "name": "_publisher",
          "type": "address"
        }
      ],
      "name": "DB_insert",
      "outputs": [],
      "payable": false,
      "stateMutability": "nonpayable",
      "type": "function",
      "signature": "0x0fef4815"
    },
    {
      "constant": false,
      "inputs": [
        {
          "name": "_ipfsHash",
          "type": "string"
        },
        {
          "name": "_title",
          "type": "string"
        },
        {
          "name": "_timestamp",
          "type": "uint256"
        },
        {
          "name": "_size",
          "type": "uint256"
        },
        {
          "name": "_tipjar",
          "type": "uint256"
        },
        {
          "name": "_views",
          "type": "uint256"
        },
        {
          "name": "_publisher",
          "type": "address"
        }
      ],
      "name": "DB_update",
      "outputs": [],
      "payable": false,
      "stateMutability": "nonpayable",
      "type": "function",
      "signature": "0x2149db5b"
    },
    {
      "constant": true,
      "inputs": [
        {
          "name": "_ipfsHash",
          "type": "string"
        }
      ],
      "name": "DB_get",
      "outputs": [
        {
          "components": [
            {
              "name": "ipfsHash",
              "type": "string"
            },
            {
              "name": "title",
              "type": "string"
            },
            {
              "name": "timeStamp",
              "type": "uint256"
            },
            {
              "name": "size",
              "type": "uint256"
            },
            {
              "name": "tipjar",
              "type": "uint256"
            },
            {
              "name": "views",
              "type": "uint256"
            },
            {
              "name": "publisher",
              "type": "address"
            }
          ],
          "name": "",
          "type": "tuple"
        }
      ],
      "payable": false,
      "stateMutability": "view",
      "type": "function",
      "signature": "0x59078282"
    },
    {
      "constant": false,
      "inputs": [
        {
          "name": "_amount",
          "type": "uint256"
        },
        {
          "name": "_ipfsHash",
          "type": "string"
        },
        {
          "name": "_publisher",
          "type": "address"
        }
      ],
      "name": "DB_tipMade",
      "outputs": [],
      "payable": false,
      "stateMutability": "nonpayable",
      "type": "function",
      "signature": "0x6cfed082"
    },
    {
      "constant": false,
      "inputs": [
        {
          "name": "_ipfsHash",
          "type": "string"
        },
        {
          "name": "_publisher",
          "type": "address"
        }
      ],
      "name": "DB_delete",
      "outputs": [],
      "payable": false,
      "stateMutability": "nonpayable",
      "type": "function",
      "signature": "0x80451248"
    },
    {
      "inputs": [],
      "payable": false,
      "stateMutability": "nonpayable",
      "type": "constructor",
      "signature": "constructor"
    },
    {
      "anonymous": false,
      "inputs": [
        {
          "indexed": false,
          "name": "ipfsHash",
          "type": "string"
        },
        {
          "indexed": false,
          "name": "message",
          "type": "string"
        }
      ],
      "name": "newVideo",
      "type": "event",
      "signature": "0x37b59e425c90c132d42aa20e4d10f9f462daab7a81f2fd63ce7391bbec2179f1"
    },
    {
      "anonymous": false,
      "inputs": [
        {
          "indexed": false,
          "name": "amount",
          "type": "uint256"
        },
        {
          "indexed": false,
          "name": "ipfsHash",
          "type": "string"
        },
        {
          "indexed": false,
          "name": "sender",
          "type": "address"
        }
      ],
      "name": "tipMade",
      "type": "event",
      "signature": "0x195194e59def898f48fb635c432c9fc120bab95389600ea9419e38d943c46c71"
    },
    {
      "constant": false,
      "inputs": [
        {
          "name": "_publisher",
          "type": "address"
        },
        {
          "name": "_ipfsHash",
          "type": "string"
        }
      ],
      "name": "tip",
      "outputs": [],
      "payable": true,
      "stateMutability": "payable",
      "type": "function",
      "signature": "0xb1519611"
    },
    {
      "constant": false,
      "inputs": [
        {
          "name": "_ipfsHash",
          "type": "string"
        },
        {
          "name": "_title",
          "type": "string"
        },
        {
          "name": "_timestamp",
          "type": "uint256"
        },
        {
          "name": "_size",
          "type": "uint256"
        },
        {
          "name": "_publisher",
          "type": "address"
        }
      ],
      "name": "addVideo",
      "outputs": [],
      "payable": false,
      "stateMutability": "nonpayable",
      "type": "function",
      "signature": "0x7a2dca76"
    },
    {
      "constant": true,
      "inputs": [
        {
          "name": "_ipfsHash",
          "type": "string"
        }
      ],
      "name": "getVideo",
      "outputs": [
        {
          "components": [
            {
              "name": "ipfsHash",
              "type": "string"
            },
            {
              "name": "title",
              "type": "string"
            },
            {
              "name": "timeStamp",
              "type": "uint256"
            },
            {
              "name": "size",
              "type": "uint256"
            },
            {
              "name": "tipjar",
              "type": "uint256"
            },
            {
              "name": "views",
              "type": "uint256"
            },
            {
              "name": "publisher",
              "type": "address"
            }
          ],
          "name": "",
          "type": "tuple"
        }
      ],
      "payable": false,
      "stateMutability": "view",
      "type": "function",
      "signature": "0x972dc5a2"
    }
  ],
  "bytecode": "0x608060405234801561001057600080fd5b5033600260006101000a81548173ffffffffffffffffffffffffffffffffffffffff021916908373ffffffffffffffffffffffffffffffffffffffff160217905550611ffe806100616000396000f3fe608060405260043610610099576000357c0100000000000000000000000000000000000000000000000000000000900463ffffffff1680630a4d85cd1461009e5780630fef4815146100dc5780632149db5b14610105578063590782821461012e5780636cfed0821461016b5780637a2dca761461019457806380451248146101bd578063972dc5a2146101e6578063b151961114610223575b600080fd5b3480156100aa57600080fd5b506100c560048036036100c0919081019061176a565b61023f565b6040516100d3929190611e39565b60405180910390f35b3480156100e857600080fd5b5061010360048036036100fe9190810190611923565b610263565b005b34801561011157600080fd5b5061012c60048036036101279190810190611923565b610581565b005b34801561013a57600080fd5b50610155600480360361015091908101906117e7565b610950565b6040516101629190611dd9565b60405180910390f35b34801561017757600080fd5b50610192600480360361018d91908101906119f1565b610ca0565b005b3480156101a057600080fd5b506101bb60048036036101b6919081019061187c565b611078565b005b3480156101c957600080fd5b506101e460048036036101df9190810190611828565b611150565b005b3480156101f257600080fd5b5061020d600480360361020891908101906117e7565b61137c565b60405161021a9190611dd9565b60405180910390f35b61023d60048036036102389190810190611793565b611496565b005b60006020528060005260406000206000915090508060000154908060010154905082565b61026b611597565b60e0604051908101604052808981526020018881526020018781526020018681526020018581526020018481526020018373ffffffffffffffffffffffffffffffffffffffff168152509050806001896040518082805190602001908083835b6020831015156102f057805182526020820191506020810190506020830392506102cb565b6001836020036101000a0380198251168184511680821785525050505050509050019150509081526020016040518091039020600082015181600001908051906020019061033f9291906115eb565b50602082015181600101908051906020019061035c9291906115eb565b5060408201518160020155606082015181600301556080820151816004015560a0820151816005015560c08201518160060160006101000a81548173ffffffffffffffffffffffffffffffffffffffff021916908373ffffffffffffffffffffffffffffffffffffffff1602179055509050506000808373ffffffffffffffffffffffffffffffffffffffff1673ffffffffffffffffffffffffffffffffffffffff16815260200190815260200160002060000160008154809291906001019190505550806000808473ffffffffffffffffffffffffffffffffffffffff1673ffffffffffffffffffffffffffffffffffffffff168152602001908152602001600020600201896040518082805190602001908083835b6020831015156104985780518252602082019150602081019050602083039250610473565b6001836020036101000a038019825116818451168082178552505050505050905001915050908152602001604051809103902060008201518160000190805190602001906104e79291906115eb565b5060208201518160010190805190602001906105049291906115eb565b5060408201518160020155606082015181600301556080820151816004015560a0820151816005015560c08201518160060160006101000a81548173ffffffffffffffffffffffffffffffffffffffff021916908373ffffffffffffffffffffffffffffffffffffffff1602179055509050505050505050505050565b86600073ffffffffffffffffffffffffffffffffffffffff166001826040518082805190602001908083835b6020831015156105d257805182526020820191506020810190506020830392506105ad565b6001836020036101000a038019825116818451168082178552505050505050905001915050908152602001604051809103902060060160009054906101000a900473ffffffffffffffffffffffffffffffffffffffff1673ffffffffffffffffffffffffffffffffffffffff1614151515610682576040517f08c379a000000000000000000000000000000000000000000000000000000000815260040161067990611d39565b60405180910390fd5b61068a611597565b60e0604051908101604052808a81526020018981526020018881526020018781526020018681526020018581526020018473ffffffffffffffffffffffffffffffffffffffff1681525090508060018a6040518082805190602001908083835b60208310151561070f57805182526020820191506020810190506020830392506106ea565b6001836020036101000a0380198251168184511680821785525050505050509050019150509081526020016040518091039020600082015181600001908051906020019061075e9291906115eb565b50602082015181600101908051906020019061077b9291906115eb565b5060408201518160020155606082015181600301556080820151816004015560a0820151816005015560c08201518160060160006101000a81548173ffffffffffffffffffffffffffffffffffffffff021916908373ffffffffffffffffffffffffffffffffffffffff160217905550905050806000808573ffffffffffffffffffffffffffffffffffffffff1673ffffffffffffffffffffffffffffffffffffffff1681526020019081526020016000206002018a6040518082805190602001908083835b6020831015156108665780518252602082019150602081019050602083039250610841565b6001836020036101000a038019825116818451168082178552505050505050905001915050908152602001604051809103902060008201518160000190805190602001906108b59291906115eb565b5060208201518160010190805190602001906108d29291906115eb565b5060408201518160020155606082015181600301556080820151816004015560a0820151816005015560c08201518160060160006101000a81548173ffffffffffffffffffffffffffffffffffffffff021916908373ffffffffffffffffffffffffffffffffffffffff160217905550905050505050505050505050565b610958611597565b81600073ffffffffffffffffffffffffffffffffffffffff166001826040518082805190602001908083835b6020831015156109a95780518252602082019150602081019050602083039250610984565b6001836020036101000a038019825116818451168082178552505050505050905001915050908152602001604051809103902060060160009054906101000a900473ffffffffffffffffffffffffffffffffffffffff1673ffffffffffffffffffffffffffffffffffffffff1614151515610a59576040517f08c379a0000000000000000000000000000000000000000000000000000000008152600401610a5090611d39565b60405180910390fd5b60006001846040518082805190602001908083835b602083101515610a935780518252602082019150602081019050602083039250610a6e565b6001836020036101000a038019825116818451168082178552505050505050905001915050908152602001604051809103902090508060e06040519081016040529081600082018054600181600116156101000203166002900480601f016020809104026020016040519081016040528092919081815260200182805460018160011615610100020316600290048015610b6e5780601f10610b4357610100808354040283529160200191610b6e565b820191906000526020600020905b815481529060010190602001808311610b5157829003601f168201915b50505050508152602001600182018054600181600116156101000203166002900480601f016020809104026020016040519081016040528092919081815260200182805460018160011615610100020316600290048015610c105780601f10610be557610100808354040283529160200191610c10565b820191906000526020600020905b815481529060010190602001808311610bf357829003601f168201915b50505050508152602001600282015481526020016003820154815260200160048201548152602001600582015481526020016006820160009054906101000a900473ffffffffffffffffffffffffffffffffffffffff1673ffffffffffffffffffffffffffffffffffffffff1673ffffffffffffffffffffffffffffffffffffffff168152505092505050919050565b81600073ffffffffffffffffffffffffffffffffffffffff166001826040518082805190602001908083835b602083101515610cf15780518252602082019150602081019050602083039250610ccc565b6001836020036101000a038019825116818451168082178552505050505050905001915050908152602001604051809103902060060160009054906101000a900473ffffffffffffffffffffffffffffffffffffffff1673ffffffffffffffffffffffffffffffffffffffff1614151515610da1576040517f08c379a0000000000000000000000000000000000000000000000000000000008152600401610d9890611d39565b60405180910390fd5b600084111515610de6576040517f08c379a0000000000000000000000000000000000000000000000000000000008152600401610ddd90611db9565b60405180910390fd5b600073ffffffffffffffffffffffffffffffffffffffff166001846040518082805190602001908083835b602083101515610e365780518252602082019150602081019050602083039250610e11565b6001836020036101000a038019825116818451168082178552505050505050905001915050908152602001604051809103902060060160009054906101000a900473ffffffffffffffffffffffffffffffffffffffff1673ffffffffffffffffffffffffffffffffffffffff1614151515610ee6576040517f08c379a0000000000000000000000000000000000000000000000000000000008152600401610edd90611d39565b60405180910390fd5b6001836040518082805190602001908083835b602083101515610f1e5780518252602082019150602081019050602083039250610ef9565b6001836020036101000a0380198251168184511680821785525050505050509050019150509081526020016040518091039020600401600081548092919060010191905055506000808373ffffffffffffffffffffffffffffffffffffffff1673ffffffffffffffffffffffffffffffffffffffff168152602001908152602001600020600201836040518082805190602001908083835b602083101515610fdb5780518252602082019150602081019050602083039250610fb6565b6001836020036101000a0380198251168184511680821785525050505050509050019150509081526020016040518091039020600401600081548092919060010191905055506000808373ffffffffffffffffffffffffffffffffffffffff1673ffffffffffffffffffffffffffffffffffffffff1681526020019081526020016000206001016000815480929190600101919050555050505050565b8073ffffffffffffffffffffffffffffffffffffffff163373ffffffffffffffffffffffffffffffffffffffff161415156110e8576040517f08c379a00000000000000000000000000000000000000000000000000000000081526004016110df90611d79565b60405180910390fd5b6000821180156110f757504283105b151561110257600080fd5b6111128585858560008087610263565b7f37b59e425c90c132d42aa20e4d10f9f462daab7a81f2fd63ce7391bbec2179f1856040516111419190611d04565b60405180910390a15050505050565b81600073ffffffffffffffffffffffffffffffffffffffff166001826040518082805190602001908083835b6020831015156111a1578051825260208201915060208101905060208303925061117c565b6001836020036101000a038019825116818451168082178552505050505050905001915050908152602001604051809103902060060160009054906101000a900473ffffffffffffffffffffffffffffffffffffffff1673ffffffffffffffffffffffffffffffffffffffff1614151515611251576040517f08c379a000000000000000000000000000000000000000000000000000000000815260040161124890611d39565b60405180910390fd5b6001836040518082805190602001908083835b6020831015156112895780518252602082019150602081019050602083039250611264565b6001836020036101000a0380198251168184511680821785525050505050509050019150509081526020016040518091039020600080820160006112cd919061166b565b6001820160006112dd919061166b565b60028201600090556003820160009055600482016000905560058201600090556006820160006101000a81549073ffffffffffffffffffffffffffffffffffffffff021916905550506000808373ffffffffffffffffffffffffffffffffffffffff1673ffffffffffffffffffffffffffffffffffffffff16815260200190815260200160002060008082016000905560018201600090555050505050565b611384611597565b81600073ffffffffffffffffffffffffffffffffffffffff166001826040518082805190602001908083835b6020831015156113d557805182526020820191506020810190506020830392506113b0565b6001836020036101000a038019825116818451168082178552505050505050905001915050908152602001604051809103902060060160009054906101000a900473ffffffffffffffffffffffffffffffffffffffff1673ffffffffffffffffffffffffffffffffffffffff1614151515611485576040517f08c379a000000000000000000000000000000000000000000000000000000000815260040161147c90611d39565b60405180910390fd5b61148e83610950565b915050919050565b6000341115156114db576040517f08c379a00000000000000000000000000000000000000000000000000000000081526004016114d290611d99565b60405180910390fd5b600073ffffffffffffffffffffffffffffffffffffffff168273ffffffffffffffffffffffffffffffffffffffff161415151561154d576040517f08c379a000000000000000000000000000000000000000000000000000000000815260040161154490611d59565b60405180910390fd5b611558348284610ca0565b7f195194e59def898f48fb635c432c9fc120bab95389600ea9419e38d943c46c7134823360405161158b93929190611dfb565b60405180910390a15050565b60e060405190810160405280606081526020016060815260200160008152602001600081526020016000815260200160008152602001600073ffffffffffffffffffffffffffffffffffffffff1681525090565b828054600181600116156101000203166002900490600052602060002090601f016020900481019282601f1061162c57805160ff191683800117855561165a565b8280016001018555821561165a579182015b8281111561165957825182559160200191906001019061163e565b5b50905061166791906116b3565b5090565b50805460018160011615610100020316600290046000825580601f1061169157506116b0565b601f0160209004906000526020600020908101906116af91906116b3565b5b50565b6116d591905b808211156116d15760008160009055506001016116b9565b5090565b90565b60006116e48235611f0d565b905092915050565b60006116f88235611f1f565b905092915050565b600082601f830112151561171357600080fd5b813561172661172182611e8f565b611e62565b9150808252602083016020830185838301111561174257600080fd5b61174d838284611f71565b50505092915050565b60006117628235611f31565b905092915050565b60006020828403121561177c57600080fd5b600061178a848285016116d8565b91505092915050565b600080604083850312156117a657600080fd5b60006117b4858286016116ec565b925050602083013567ffffffffffffffff8111156117d157600080fd5b6117dd85828601611700565b9150509250929050565b6000602082840312156117f957600080fd5b600082013567ffffffffffffffff81111561181357600080fd5b61181f84828501611700565b91505092915050565b6000806040838503121561183b57600080fd5b600083013567ffffffffffffffff81111561185557600080fd5b61186185828601611700565b9250506020611872858286016116d8565b9150509250929050565b600080600080600060a0868803121561189457600080fd5b600086013567ffffffffffffffff8111156118ae57600080fd5b6118ba88828901611700565b955050602086013567ffffffffffffffff8111156118d757600080fd5b6118e388828901611700565b94505060406118f488828901611756565b935050606061190588828901611756565b9250506080611916888289016116ec565b9150509295509295909350565b600080600080600080600060e0888a03121561193e57600080fd5b600088013567ffffffffffffffff81111561195857600080fd5b6119648a828b01611700565b975050602088013567ffffffffffffffff81111561198157600080fd5b61198d8a828b01611700565b965050604061199e8a828b01611756565b95505060606119af8a828b01611756565b94505060806119c08a828b01611756565b93505060a06119d18a828b01611756565b92505060c06119e28a828b016116ec565b91505092959891949750929550565b600080600060608486031215611a0657600080fd5b6000611a1486828701611756565b935050602084013567ffffffffffffffff811115611a3157600080fd5b611a3d86828701611700565b9250506040611a4e868287016116ec565b9150509250925092565b611a6181611f3b565b82525050565b611a7081611ed1565b82525050565b6000611a8182611ec6565b808452611a95816020860160208601611f80565b611a9e81611fb3565b602085010191505092915050565b6000611ab782611ebb565b808452611acb816020860160208601611f80565b611ad481611fb3565b602085010191505092915050565b6000601582527f566964656f7320646f6573206e6f7420657869737400000000000000000000006020830152604082019050919050565b6000600f82527f696e76616c6964206164647265737300000000000000000000000000000000006020830152604082019050919050565b6000602e82527f796f75206d7573742073656e642074686520766964656f207573696e6720796f60208301527f7572206f776e20616464726573730000000000000000000000000000000000006040830152606082019050919050565b6000601882527f566964656f206164646564207375636365737366756c6c7900000000000000006020830152604082019050919050565b6000600a82527f302d746970206572722e000000000000000000000000000000000000000000006020830152604082019050919050565b6000600e82527f44425f657272203a2030207469700000000000000000000000000000000000006020830152604082019050919050565b600060e0830160008301518482036000860152611c6f8282611aac565b91505060208301518482036020860152611c898282611aac565b9150506040830151611c9e6040860182611cf5565b506060830151611cb16060860182611cf5565b506080830151611cc46080860182611cf5565b5060a0830151611cd760a0860182611cf5565b5060c0830151611cea60c0860182611a67565b508091505092915050565b611cfe81611f03565b82525050565b60006040820190508181036000830152611d1e8184611a76565b90508181036020830152611d3181611bad565b905092915050565b60006020820190508181036000830152611d5281611ae2565b9050919050565b60006020820190508181036000830152611d7281611b19565b9050919050565b60006020820190508181036000830152611d9281611b50565b9050919050565b60006020820190508181036000830152611db281611be4565b9050919050565b60006020820190508181036000830152611dd281611c1b565b9050919050565b60006020820190508181036000830152611df38184611c52565b905092915050565b6000606082019050611e106000830186611cf5565b8181036020830152611e228185611a76565b9050611e316040830184611a58565b949350505050565b6000604082019050611e4e6000830185611cf5565b611e5b6020830184611cf5565b9392505050565b6000604051905081810181811067ffffffffffffffff82111715611e8557600080fd5b8060405250919050565b600067ffffffffffffffff821115611ea657600080fd5b601f19601f8301169050602081019050919050565b600081519050919050565b600081519050919050565b6000611edc82611ee3565b9050919050565b600073ffffffffffffffffffffffffffffffffffffffff82169050919050565b6000819050919050565b6000611f1882611ee3565b9050919050565b6000611f2a82611ee3565b9050919050565b6000819050919050565b6000611f4682611f4d565b9050919050565b6000611f5882611f5f565b9050919050565b6000611f6a82611ee3565b9050919050565b82818337600083830152505050565b60005b83811015611f9e578082015181840152602081019050611f83565b83811115611fad576000848401525b50505050565b6000601f19601f830116905091905056fea265627a7a723058203908dc8b9175b2902f288347d08a00257aa6c9faca2dc69d5dc25f2d9596cc856c6578706572696d656e74616cf50037",
  "source": "pragma solidity ^0.5.0;\npragma experimental ABIEncoderV2;\n\ncontract Station {\n    \n    struct Video {\n        string ipfsHash;\n        string title;\n        uint256 timeStamp;\n        uint256 size;\n        uint256 tipjar;\n        uint256 views;\n        address payable publisher;\n    }\n    \n    struct UserVideoList {\n        uint256 length; // total videos\n        uint256 tipjar;\n        mapping(string => Video) videos; // IPFS hash\n    }\n    \n    //mapping(address => uint256) jarShelf; // having track of how many tips received by the publisher\n    //The jarShelf mapping was removed because I think it should be about videos. Later we can get all the videos.\n    \n    mapping(address => UserVideoList) public publishers; // listing all videos of each publisher\n    \n    mapping(string => Video) videos; // IPFS HASH\n    \n    modifier videoExists(string memory _ipfsHash) {\n        require(videos[_ipfsHash].publisher != address(0) , \"Videos does not exist\");\n        _;\n    }\n    \n    function DB_insert(\n        string memory _ipfsHash,\n        string memory _title,\n        uint256 _timestamp,\n        uint256 _size,\n        uint256 _tipjar,\n        uint256 _views,\n        address payable _publisher\n    ) public {\n        Video memory video = Video( _ipfsHash, _title, _timestamp, _size, _tipjar, _views, _publisher);\n        videos[_ipfsHash] = video;\n        //increasing the length of videos\n        publishers[_publisher].length++;\n        publishers[_publisher].videos[_ipfsHash] = video;\n    }\n    \n    function DB_update(\n        string memory _ipfsHash,\n        string memory _title,\n        uint256 _timestamp,\n        uint256 _size,\n        uint256 _tipjar,\n        uint256 _views,\n        address payable _publisher) public videoExists(_ipfsHash)\n    {\n        \n        Video memory video = Video( _ipfsHash, _title, _timestamp, _size, _tipjar, _views, _publisher);\n        videos[_ipfsHash] = video;\n        publishers[_publisher].videos[_ipfsHash] = video;\n    }\n    \n    function DB_get(string memory _ipfsHash) public view videoExists(_ipfsHash) returns(Video memory) \n    {\n        Video storage video = videos[_ipfsHash];\n        return video;\n    }\n    \n    function DB_delete(string memory _ipfsHash, address _publisher) public videoExists(_ipfsHash)\n    {\n        \n        delete videos[_ipfsHash];\n        delete publishers[_publisher];\n    }\n    \n    function DB_tipMade(\n        uint256 _amount,\n        string memory _ipfsHash,\n        address payable _publisher) public videoExists(_ipfsHash) \n    {\n        require(_amount > 0, \"DB_err : 0 tip\");\n        require(videos[_ipfsHash].publisher != address(0) , \"Videos does not exist\");\n        \n        videos[_ipfsHash].tipjar ++;\n        publishers[_publisher].videos[_ipfsHash].tipjar ++;\n        publishers[_publisher].tipjar ++;\n    }\n}\n\n\n\ncontract Benzin is Station {\n    address private owner;\n    \n    event newVideo(string ipfsHash, string message);\n    event tipMade(uint256 amount, string ipfsHash, address sender);\n    \n    constructor() public{\n        owner = msg.sender;\n    }\n    \n    modifier isOwner {\n        require(msg.sender == owner);\n       _; \n    }\n    \n    function tip(address payable _publisher, string memory _ipfsHash) public payable {\n        require(msg.value > 0, '0-tip err.');\n        require(_publisher != address(0), 'invalid address');\n        DB_tipMade(msg.value, _ipfsHash, _publisher);\n        \n        emit tipMade(msg.value, _ipfsHash, msg.sender);\n    }\n    \n    function addVideo(\n        string memory _ipfsHash,\n        string memory _title,\n        uint256 _timestamp,\n        uint256 _size,\n        address payable _publisher)\n        public\n    {\n        require(msg.sender == _publisher, 'you must send the video using your own address');\n        require(_size > 0 && _timestamp < now);\n        DB_insert(_ipfsHash, _title, _timestamp, _size, 0, 0, _publisher);\n        emit newVideo(_ipfsHash, \"Video added successfully\");\n    }\n    \n    function getVideo(string memory _ipfsHash) public view videoExists(_ipfsHash) returns(Video memory) {\n        return DB_get(_ipfsHash);\n    }\n    \n    // function editVide() {}\n    // function deleteVideo(){}\n    \n}\n",
  "sourcePath": "/Users/mehradkavian/Dropbox/George-Brown/dApp2/BENZIN/contracts/Benzin.sol",
  "compiler": {
    "name": "solc",
    "version": "0.5.0+commit.1d4f565a.Emscripten.clang"
  },
  "schemaVersion": "3.0.3",
  "updatedAt": "2019-08-16T01:57:14.367Z",
  "devdoc": {
    "methods": {}
  },
  "userdoc": {
    "methods": {}
  }
}