{
  "contractName": "Benzin",
  "abi": [
    {
      "constant": true,
      "inputs": [
        {
          "name": "",
          "type": "address"
        }
      ],
      "name": "publishers",
      "outputs": [
        {
          "name": "length",
          "type": "uint256"
        },
        {
          "name": "tipjar",
          "type": "uint256"
        }
      ],
      "payable": false,
      "stateMutability": "view",
      "type": "function"
    },
    {
      "constant": false,
      "inputs": [
        {
          "name": "_ipfsHash",
          "type": "string"
        },
        {
          "name": "_title",
          "type": "string"
        },
        {
          "name": "_timestamp",
          "type": "uint256"
        },
        {
          "name": "_size",
          "type": "uint256"
        },
        {
          "name": "_tipjar",
          "type": "uint256"
        },
        {
          "name": "_views",
          "type": "uint256"
        },
        {
          "name": "_publisher",
          "type": "address"
        }
      ],
      "name": "DB_insert",
      "outputs": [],
      "payable": false,
      "stateMutability": "nonpayable",
      "type": "function"
    },
    {
      "constant": false,
      "inputs": [
        {
          "name": "_ipfsHash",
          "type": "string"
        },
        {
          "name": "_title",
          "type": "string"
        },
        {
          "name": "_timestamp",
          "type": "uint256"
        },
        {
          "name": "_size",
          "type": "uint256"
        },
        {
          "name": "_tipjar",
          "type": "uint256"
        },
        {
          "name": "_views",
          "type": "uint256"
        },
        {
          "name": "_publisher",
          "type": "address"
        }
      ],
      "name": "DB_update",
      "outputs": [],
      "payable": false,
      "stateMutability": "nonpayable",
      "type": "function"
    },
    {
      "constant": true,
      "inputs": [],
      "name": "videoCounter",
      "outputs": [
        {
          "name": "",
          "type": "uint256"
        }
      ],
      "payable": false,
      "stateMutability": "view",
      "type": "function"
    },
    {
      "constant": true,
      "inputs": [
        {
          "name": "_ipfsHash",
          "type": "string"
        }
      ],
      "name": "DB_get",
      "outputs": [
        {
          "components": [
            {
              "name": "ipfsHash",
              "type": "string"
            },
            {
              "name": "title",
              "type": "string"
            },
            {
              "name": "timeStamp",
              "type": "uint256"
            },
            {
              "name": "size",
              "type": "uint256"
            },
            {
              "name": "tipjar",
              "type": "uint256"
            },
            {
              "name": "views",
              "type": "uint256"
            },
            {
              "name": "publisher",
              "type": "address"
            }
          ],
          "name": "",
          "type": "tuple"
        }
      ],
      "payable": false,
      "stateMutability": "view",
      "type": "function"
    },
    {
      "constant": false,
      "inputs": [
        {
          "name": "_amount",
          "type": "uint256"
        },
        {
          "name": "_ipfsHash",
          "type": "string"
        },
        {
          "name": "_publisher",
          "type": "address"
        }
      ],
      "name": "DB_tipMade",
      "outputs": [],
      "payable": false,
      "stateMutability": "nonpayable",
      "type": "function"
    },
    {
      "constant": true,
      "inputs": [
        {
          "name": "_id",
          "type": "uint256"
        }
      ],
      "name": "DB_get_id",
      "outputs": [
        {
          "components": [
            {
              "name": "ipfsHash",
              "type": "string"
            },
            {
              "name": "title",
              "type": "string"
            },
            {
              "name": "timeStamp",
              "type": "uint256"
            },
            {
              "name": "size",
              "type": "uint256"
            },
            {
              "name": "tipjar",
              "type": "uint256"
            },
            {
              "name": "views",
              "type": "uint256"
            },
            {
              "name": "publisher",
              "type": "address"
            }
          ],
          "name": "",
          "type": "tuple"
        }
      ],
      "payable": false,
      "stateMutability": "view",
      "type": "function"
    },
    {
      "constant": false,
      "inputs": [
        {
          "name": "_ipfsHash",
          "type": "string"
        },
        {
          "name": "_publisher",
          "type": "address"
        }
      ],
      "name": "DB_delete",
      "outputs": [],
      "payable": false,
      "stateMutability": "nonpayable",
      "type": "function"
    },
    {
      "inputs": [],
      "payable": false,
      "stateMutability": "nonpayable",
      "type": "constructor"
    },
    {
      "anonymous": false,
      "inputs": [
        {
          "indexed": false,
          "name": "ipfsHash",
          "type": "string"
        },
        {
          "indexed": false,
          "name": "message",
          "type": "string"
        }
      ],
      "name": "newVideo",
      "type": "event"
    },
    {
      "anonymous": false,
      "inputs": [
        {
          "indexed": false,
          "name": "amount",
          "type": "uint256"
        },
        {
          "indexed": false,
          "name": "ipfsHash",
          "type": "string"
        },
        {
          "indexed": false,
          "name": "sender",
          "type": "address"
        }
      ],
      "name": "tipMade",
      "type": "event"
    },
    {
      "constant": false,
      "inputs": [
        {
          "name": "_ipfsHash",
          "type": "string"
        },
        {
          "name": "_publisher",
          "type": "address"
        }
      ],
      "name": "tip",
      "outputs": [],
      "payable": true,
      "stateMutability": "payable",
      "type": "function"
    },
    {
      "constant": false,
      "inputs": [
        {
          "name": "_ipfsHash",
          "type": "string"
        },
        {
          "name": "_title",
          "type": "string"
        },
        {
          "name": "_timestamp",
          "type": "uint256"
        },
        {
          "name": "_size",
          "type": "uint256"
        },
        {
          "name": "_publisher",
          "type": "address"
        }
      ],
      "name": "addVideo",
      "outputs": [],
      "payable": false,
      "stateMutability": "nonpayable",
      "type": "function"
    },
    {
      "constant": true,
      "inputs": [
        {
          "name": "_ipfsHash",
          "type": "string"
        }
      ],
      "name": "getVideo",
      "outputs": [
        {
          "components": [
            {
              "name": "ipfsHash",
              "type": "string"
            },
            {
              "name": "title",
              "type": "string"
            },
            {
              "name": "timeStamp",
              "type": "uint256"
            },
            {
              "name": "size",
              "type": "uint256"
            },
            {
              "name": "tipjar",
              "type": "uint256"
            },
            {
              "name": "views",
              "type": "uint256"
            },
            {
              "name": "publisher",
              "type": "address"
            }
          ],
          "name": "",
          "type": "tuple"
        }
      ],
      "payable": false,
      "stateMutability": "view",
      "type": "function"
    },
    {
      "constant": true,
      "inputs": [
        {
          "name": "_videoId",
          "type": "uint256"
        }
      ],
      "name": "getVideoByID",
      "outputs": [
        {
          "components": [
            {
              "name": "ipfsHash",
              "type": "string"
            },
            {
              "name": "title",
              "type": "string"
            },
            {
              "name": "timeStamp",
              "type": "uint256"
            },
            {
              "name": "size",
              "type": "uint256"
            },
            {
              "name": "tipjar",
              "type": "uint256"
            },
            {
              "name": "views",
              "type": "uint256"
            },
            {
              "name": "publisher",
              "type": "address"
            }
          ],
          "name": "",
          "type": "tuple"
        }
      ],
      "payable": false,
      "stateMutability": "view",
      "type": "function"
    },
    {
      "constant": true,
      "inputs": [],
      "name": "getVideoCounter",
      "outputs": [
        {
          "name": "",
          "type": "uint256"
        }
      ],
      "payable": false,
      "stateMutability": "view",
      "type": "function"
    }
  ],
  "bytecode": "0x608060405234801561001057600080fd5b5033600460006101000a81548173ffffffffffffffffffffffffffffffffffffffff021916908373ffffffffffffffffffffffffffffffffffffffff160217905550612499806100616000396000f3fe6080604052600436106100c5576000357c0100000000000000000000000000000000000000000000000000000000900463ffffffff1680630a0250c9146100ca5780630a4d85cd146100f55780630fef4815146101335780632149db5b1461015c578063492bb9b51461018557806359078282146101b05780635a1d1b02146101ed5780636cfed0821461020957806371f580fb14610232578063736c4c8b1461026f5780637a2dca76146102ac57806380451248146102d5578063972dc5a2146102fe575b600080fd5b3480156100d657600080fd5b506100df61033b565b6040516100ec919061227b565b60405180910390f35b34801561010157600080fd5b5061011c60048036036101179190810190611b6a565b610345565b60405161012a9291906122d4565b60405180910390f35b34801561013f57600080fd5b5061015a60048036036101559190810190611d23565b610369565b005b34801561016857600080fd5b50610183600480360361017e9190810190611d23565b610810565b005b34801561019157600080fd5b5061019a610b92565b6040516101a7919061227b565b60405180910390f35b3480156101bc57600080fd5b506101d760048036036101d29190810190611b93565b610b98565b6040516101e49190612259565b60405180910390f35b61020760048036036102029190810190611c28565b610e9b565b005b34801561021557600080fd5b50610230600480360361022b9190810190611e1a565b611051565b005b34801561023e57600080fd5b5061025960048036036102549190810190611df1565b6113da565b6040516102669190612259565b60405180910390f35b34801561027b57600080fd5b5061029660048036036102919190810190611df1565b6113f2565b6040516102a39190612259565b60405180910390f35b3480156102b857600080fd5b506102d360048036036102ce9190810190611c7c565b6115e8565b005b3480156102e157600080fd5b506102fc60048036036102f79190810190611bd4565b6116eb565b005b34801561030a57600080fd5b5061032560048036036103209190810190611b93565b6118ca565b6040516103329190612259565b60405180910390f35b6000600354905090565b60006020528060005260406000206000915090508060000154908060010154905082565b8660006001826040518082805190602001908083835b6020831015156103a4578051825260208201915060208101905060208303925061037f565b6001836020036101000a03801982511681845116808217855250505050505090500191505090815260200160405180910390206003015414151561041d576040517f08c379a000000000000000000000000000000000000000000000000000000000815260040161041490612199565b60405180910390fd5b610425611997565b60e0604051908101604052808a81526020018981526020018881526020018781526020018681526020018581526020018473ffffffffffffffffffffffffffffffffffffffff1681525090508060018a6040518082805190602001908083835b6020831015156104aa5780518252602082019150602081019050602083039250610485565b6001836020036101000a038019825116818451168082178552505050505050905001915050908152602001604051809103902060008201518160000190805190602001906104f99291906119eb565b5060208201518160010190805190602001906105169291906119eb565b5060408201518160020155606082015181600301556080820151816004015560a0820151816005015560c08201518160060160006101000a81548173ffffffffffffffffffffffffffffffffffffffff021916908373ffffffffffffffffffffffffffffffffffffffff1602179055509050506003600081548092919060010191905055508060026000600354815260200190815260200160002060008201518160000190805190602001906105cd9291906119eb565b5060208201518160010190805190602001906105ea9291906119eb565b5060408201518160020155606082015181600301556080820151816004015560a0820151816005015560c08201518160060160006101000a81548173ffffffffffffffffffffffffffffffffffffffff021916908373ffffffffffffffffffffffffffffffffffffffff1602179055509050506000808473ffffffffffffffffffffffffffffffffffffffff1673ffffffffffffffffffffffffffffffffffffffff16815260200190815260200160002060000160008154809291906001019190505550806000808573ffffffffffffffffffffffffffffffffffffffff1673ffffffffffffffffffffffffffffffffffffffff1681526020019081526020016000206002018a6040518082805190602001908083835b6020831015156107265780518252602082019150602081019050602083039250610701565b6001836020036101000a038019825116818451168082178552505050505050905001915050908152602001604051809103902060008201518160000190805190602001906107759291906119eb565b5060208201518160010190805190602001906107929291906119eb565b5060408201518160020155606082015181600301556080820151816004015560a0820151816005015560c08201518160060160006101000a81548173ffffffffffffffffffffffffffffffffffffffff021916908373ffffffffffffffffffffffffffffffffffffffff160217905550905050505050505050505050565b8660006001826040518082805190602001908083835b60208310151561084b5780518252602082019150602081019050602083039250610826565b6001836020036101000a0380198251168184511680821785525050505050509050019150509081526020016040518091039020600301541115156108c4576040517f08c379a00000000000000000000000000000000000000000000000000000000081526004016108bb90612199565b60405180910390fd5b6108cc611997565b60e0604051908101604052808a81526020018981526020018881526020018781526020018681526020018581526020018473ffffffffffffffffffffffffffffffffffffffff1681525090508060018a6040518082805190602001908083835b602083101515610951578051825260208201915060208101905060208303925061092c565b6001836020036101000a038019825116818451168082178552505050505050905001915050908152602001604051809103902060008201518160000190805190602001906109a09291906119eb565b5060208201518160010190805190602001906109bd9291906119eb565b5060408201518160020155606082015181600301556080820151816004015560a0820151816005015560c08201518160060160006101000a81548173ffffffffffffffffffffffffffffffffffffffff021916908373ffffffffffffffffffffffffffffffffffffffff160217905550905050806000808573ffffffffffffffffffffffffffffffffffffffff1673ffffffffffffffffffffffffffffffffffffffff1681526020019081526020016000206002018a6040518082805190602001908083835b602083101515610aa85780518252602082019150602081019050602083039250610a83565b6001836020036101000a03801982511681845116808217855250505050505090500191505090815260200160405180910390206000820151816000019080519060200190610af79291906119eb565b506020820151816001019080519060200190610b149291906119eb565b5060408201518160020155606082015181600301556080820151816004015560a0820151816005015560c08201518160060160006101000a81548173ffffffffffffffffffffffffffffffffffffffff021916908373ffffffffffffffffffffffffffffffffffffffff160217905550905050505050505050505050565b60035481565b610ba0611997565b8160006001826040518082805190602001908083835b602083101515610bdb5780518252602082019150602081019050602083039250610bb6565b6001836020036101000a038019825116818451168082178552505050505050905001915050908152602001604051809103902060030154111515610c54576040517f08c379a0000000000000000000000000000000000000000000000000000000008152600401610c4b90612199565b60405180910390fd5b60006001846040518082805190602001908083835b602083101515610c8e5780518252602082019150602081019050602083039250610c69565b6001836020036101000a038019825116818451168082178552505050505050905001915050908152602001604051809103902090508060e06040519081016040529081600082018054600181600116156101000203166002900480601f016020809104026020016040519081016040528092919081815260200182805460018160011615610100020316600290048015610d695780601f10610d3e57610100808354040283529160200191610d69565b820191906000526020600020905b815481529060010190602001808311610d4c57829003601f168201915b50505050508152602001600182018054600181600116156101000203166002900480601f016020809104026020016040519081016040528092919081815260200182805460018160011615610100020316600290048015610e0b5780601f10610de057610100808354040283529160200191610e0b565b820191906000526020600020905b815481529060010190602001808311610dee57829003601f168201915b50505050508152602001600282015481526020016003820154815260200160048201548152602001600582015481526020016006820160009054906101000a900473ffffffffffffffffffffffffffffffffffffffff1673ffffffffffffffffffffffffffffffffffffffff1673ffffffffffffffffffffffffffffffffffffffff168152505092505050919050565b8160006001826040518082805190602001908083835b602083101515610ed65780518252602082019150602081019050602083039250610eb1565b6001836020036101000a038019825116818451168082178552505050505050905001915050908152602001604051809103902060030154111515610f4f576040517f08c379a0000000000000000000000000000000000000000000000000000000008152600401610f4690612199565b60405180910390fd5b600034111515610f94576040517f08c379a0000000000000000000000000000000000000000000000000000000008152600401610f8b90612219565b60405180910390fd5b600073ffffffffffffffffffffffffffffffffffffffff168273ffffffffffffffffffffffffffffffffffffffff1614151515611006576040517f08c379a0000000000000000000000000000000000000000000000000000000008152600401610ffd906121b9565b60405180910390fd5b611011348484611051565b7f195194e59def898f48fb635c432c9fc120bab95389600ea9419e38d943c46c7134843360405161104493929190612296565b60405180910390a1505050565b8160006001826040518082805190602001908083835b60208310151561108c5780518252602082019150602081019050602083039250611067565b6001836020036101000a038019825116818451168082178552505050505050905001915050908152602001604051809103902060030154111515611105576040517f08c379a00000000000000000000000000000000000000000000000000000000081526004016110fc90612199565b60405180910390fd5b60008411151561114a576040517f08c379a000000000000000000000000000000000000000000000000000000000815260040161114190612239565b60405180910390fd5b600073ffffffffffffffffffffffffffffffffffffffff166001846040518082805190602001908083835b60208310151561119a5780518252602082019150602081019050602083039250611175565b6001836020036101000a038019825116818451168082178552505050505050905001915050908152602001604051809103902060060160009054906101000a900473ffffffffffffffffffffffffffffffffffffffff1673ffffffffffffffffffffffffffffffffffffffff161415151561124a576040517f08c379a000000000000000000000000000000000000000000000000000000000815260040161124190612199565b60405180910390fd5b836001846040518082805190602001908083835b602083101515611283578051825260208201915060208101905060208303925061125e565b6001836020036101000a0380198251168184511680821785525050505050509050019150509081526020016040518091039020600401600082825401925050819055506000808373ffffffffffffffffffffffffffffffffffffffff1673ffffffffffffffffffffffffffffffffffffffff168152602001908152602001600020600201836040518082805190602001908083835b60208310151561133d5780518252602082019150602081019050602083039250611318565b6001836020036101000a0380198251168184511680821785525050505050509050019150509081526020016040518091039020600401600081548092919060010191905055506000808373ffffffffffffffffffffffffffffffffffffffff1673ffffffffffffffffffffffffffffffffffffffff1681526020019081526020016000206001016000815480929190600101919050555050505050565b6113e2611997565b6113eb826113f2565b9050919050565b6113fa611997565b60006002600084815260200190815260200160002090508060e06040519081016040529081600082018054600181600116156101000203166002900480601f0160208091040260200160405190810160405280929190818152602001828054600181600116156101000203166002900480156114b75780601f1061148c576101008083540402835291602001916114b7565b820191906000526020600020905b81548152906001019060200180831161149a57829003601f168201915b50505050508152602001600182018054600181600116156101000203166002900480601f0160208091040260200160405190810160405280929190818152602001828054600181600116156101000203166002900480156115595780601f1061152e57610100808354040283529160200191611559565b820191906000526020600020905b81548152906001019060200180831161153c57829003601f168201915b50505050508152602001600282015481526020016003820154815260200160048201548152602001600582015481526020016006820160009054906101000a900473ffffffffffffffffffffffffffffffffffffffff1673ffffffffffffffffffffffffffffffffffffffff1673ffffffffffffffffffffffffffffffffffffffff1681525050915050919050565b8073ffffffffffffffffffffffffffffffffffffffff163373ffffffffffffffffffffffffffffffffffffffff16141515611658576040517f08c379a000000000000000000000000000000000000000000000000000000000815260040161164f906121d9565b60405180910390fd5b60008211151561169d576040517f08c379a0000000000000000000000000000000000000000000000000000000008152600401611694906121f9565b60405180910390fd5b6116ad8585858560008087610369565b7f37b59e425c90c132d42aa20e4d10f9f462daab7a81f2fd63ce7391bbec2179f1856040516116dc9190612164565b60405180910390a15050505050565b8160006001826040518082805190602001908083835b6020831015156117265780518252602082019150602081019050602083039250611701565b6001836020036101000a03801982511681845116808217855250505050505090500191505090815260200160405180910390206003015411151561179f576040517f08c379a000000000000000000000000000000000000000000000000000000000815260040161179690612199565b60405180910390fd5b6001836040518082805190602001908083835b6020831015156117d757805182526020820191506020810190506020830392506117b2565b6001836020036101000a03801982511681845116808217855250505050505090500191505090815260200160405180910390206000808201600061181b9190611a6b565b60018201600061182b9190611a6b565b60028201600090556003820160009055600482016000905560058201600090556006820160006101000a81549073ffffffffffffffffffffffffffffffffffffffff021916905550506000808373ffffffffffffffffffffffffffffffffffffffff1673ffffffffffffffffffffffffffffffffffffffff16815260200190815260200160002060008082016000905560018201600090555050505050565b6118d2611997565b8160006001826040518082805190602001908083835b60208310151561190d57805182526020820191506020810190506020830392506118e8565b6001836020036101000a038019825116818451168082178552505050505050905001915050908152602001604051809103902060030154111515611986576040517f08c379a000000000000000000000000000000000000000000000000000000000815260040161197d90612199565b60405180910390fd5b61198f83610b98565b915050919050565b60e060405190810160405280606081526020016060815260200160008152602001600081526020016000815260200160008152602001600073ffffffffffffffffffffffffffffffffffffffff1681525090565b828054600181600116156101000203166002900490600052602060002090601f016020900481019282601f10611a2c57805160ff1916838001178555611a5a565b82800160010185558215611a5a579182015b82811115611a59578251825591602001919060010190611a3e565b5b509050611a679190611ab3565b5090565b50805460018160011615610100020316600290046000825580601f10611a915750611ab0565b601f016020900490600052602060002090810190611aaf9190611ab3565b5b50565b611ad591905b80821115611ad1576000816000905550600101611ab9565b5090565b90565b6000611ae482356123a8565b905092915050565b6000611af882356123ba565b905092915050565b600082601f8301121515611b1357600080fd5b8135611b26611b218261232a565b6122fd565b91508082526020830160208301858383011115611b4257600080fd5b611b4d83828461240c565b50505092915050565b6000611b6282356123cc565b905092915050565b600060208284031215611b7c57600080fd5b6000611b8a84828501611ad8565b91505092915050565b600060208284031215611ba557600080fd5b600082013567ffffffffffffffff811115611bbf57600080fd5b611bcb84828501611b00565b91505092915050565b60008060408385031215611be757600080fd5b600083013567ffffffffffffffff811115611c0157600080fd5b611c0d85828601611b00565b9250506020611c1e85828601611ad8565b9150509250929050565b60008060408385031215611c3b57600080fd5b600083013567ffffffffffffffff811115611c5557600080fd5b611c6185828601611b00565b9250506020611c7285828601611aec565b9150509250929050565b600080600080600060a08688031215611c9457600080fd5b600086013567ffffffffffffffff811115611cae57600080fd5b611cba88828901611b00565b955050602086013567ffffffffffffffff811115611cd757600080fd5b611ce388828901611b00565b9450506040611cf488828901611b56565b9350506060611d0588828901611b56565b9250506080611d1688828901611aec565b9150509295509295909350565b600080600080600080600060e0888a031215611d3e57600080fd5b600088013567ffffffffffffffff811115611d5857600080fd5b611d648a828b01611b00565b975050602088013567ffffffffffffffff811115611d8157600080fd5b611d8d8a828b01611b00565b9650506040611d9e8a828b01611b56565b9550506060611daf8a828b01611b56565b9450506080611dc08a828b01611b56565b93505060a0611dd18a828b01611b56565b92505060c0611de28a828b01611aec565b91505092959891949750929550565b600060208284031215611e0357600080fd5b6000611e1184828501611b56565b91505092915050565b600080600060608486031215611e2f57600080fd5b6000611e3d86828701611b56565b935050602084013567ffffffffffffffff811115611e5a57600080fd5b611e6686828701611b00565b9250506040611e7786828701611aec565b9150509250925092565b611e8a816123d6565b82525050565b611e998161236c565b82525050565b6000611eaa82612361565b808452611ebe81602086016020860161241b565b611ec78161244e565b602085010191505092915050565b6000611ee082612356565b808452611ef481602086016020860161241b565b611efd8161244e565b602085010191505092915050565b6000601582527f566964656f7320646f6573206e6f7420657869737400000000000000000000006020830152604082019050919050565b6000600f82527f696e76616c6964206164647265737300000000000000000000000000000000006020830152604082019050919050565b6000602e82527f796f75206d7573742073656e642074686520766964656f207573696e6720796f60208301527f7572206f776e20616464726573730000000000000000000000000000000000006040830152606082019050919050565b6000601882527f566964656f206164646564207375636365737366756c6c7900000000000000006020830152604082019050919050565b6000600882527f73697a65206572720000000000000000000000000000000000000000000000006020830152604082019050919050565b6000600a82527f302d746970206572722e000000000000000000000000000000000000000000006020830152604082019050919050565b6000600e82527f44425f657272203a2030207469700000000000000000000000000000000000006020830152604082019050919050565b600060e08301600083015184820360008601526120cf8282611ed5565b915050602083015184820360208601526120e98282611ed5565b91505060408301516120fe6040860182612155565b5060608301516121116060860182612155565b5060808301516121246080860182612155565b5060a083015161213760a0860182612155565b5060c083015161214a60c0860182611e90565b508091505092915050565b61215e8161239e565b82525050565b6000604082019050818103600083015261217e8184611e9f565b9050818103602083015261219181611fd6565b905092915050565b600060208201905081810360008301526121b281611f0b565b9050919050565b600060208201905081810360008301526121d281611f42565b9050919050565b600060208201905081810360008301526121f281611f79565b9050919050565b600060208201905081810360008301526122128161200d565b9050919050565b6000602082019050818103600083015261223281612044565b9050919050565b600060208201905081810360008301526122528161207b565b9050919050565b6000602082019050818103600083015261227381846120b2565b905092915050565b60006020820190506122906000830184612155565b92915050565b60006060820190506122ab6000830186612155565b81810360208301526122bd8185611e9f565b90506122cc6040830184611e81565b949350505050565b60006040820190506122e96000830185612155565b6122f66020830184612155565b9392505050565b6000604051905081810181811067ffffffffffffffff8211171561232057600080fd5b8060405250919050565b600067ffffffffffffffff82111561234157600080fd5b601f19601f8301169050602081019050919050565b600081519050919050565b600081519050919050565b60006123778261237e565b9050919050565b600073ffffffffffffffffffffffffffffffffffffffff82169050919050565b6000819050919050565b60006123b38261237e565b9050919050565b60006123c58261237e565b9050919050565b6000819050919050565b60006123e1826123e8565b9050919050565b60006123f3826123fa565b9050919050565b60006124058261237e565b9050919050565b82818337600083830152505050565b60005b8381101561243957808201518184015260208101905061241e565b83811115612448576000848401525b50505050565b6000601f19601f830116905091905056fea265627a7a72305820c1f1ad19d28889054e0ee0aab90e66710813a48b3dc791d82278aef76dccba506c6578706572696d656e74616cf50037",
  "source": "pragma solidity ^0.5.0;\npragma experimental ABIEncoderV2;\n\ncontract Station {\n    \n    struct Video {\n        string ipfsHash;\n        string title;\n        uint256 timeStamp;\n        uint256 size;\n        uint256 tipjar;\n        uint256 views;\n        address payable publisher;\n    }\n    \n    struct UserVideoList {\n        uint256 length; // total videos\n        uint256 tipjar;\n        mapping(string => Video) videos; // IPFS hash\n    }\n    \n    //mapping(address => uint256) jarShelf; // having track of how many tips received by the publisher\n    //The jarShelf mapping was removed because I think it should be about videos. Later we can get all the videos.\n    \n    mapping(address => UserVideoList) public publishers; // listing all videos of each publisher\n    \n    mapping(string => Video) videos; // IPFS HASH\n    mapping(uint256 => Video) videosList;\n    uint256 public videoCounter;\n    \n    modifier videoExists(string memory _ipfsHash) {\n        require(videos[_ipfsHash].size >0 , \"Videos does not exist\");\n        _;\n    }\n\n    modifier videoNotExists(string memory _ipfsHash) {\n        require(videos[_ipfsHash].size == 0 , \"Videos does not exist\");\n        _;\n    }\n    \n    function DB_insert(\n        string memory _ipfsHash,\n        string memory _title,\n        uint256 _timestamp,\n        uint256 _size,\n        uint256 _tipjar,\n        uint256 _views,\n        address payable _publisher\n    ) public videoNotExists(_ipfsHash) {\n        Video memory video = Video( _ipfsHash, _title, _timestamp, _size, _tipjar, _views, _publisher);\n        videos[_ipfsHash] = video;\n        //increasing the length of videos\n        videoCounter++;\n        videosList[videoCounter] = video;\n        publishers[_publisher].length++;\n        publishers[_publisher].videos[_ipfsHash] = video;\n    }\n    \n    function DB_update(\n        string memory _ipfsHash,\n        string memory _title,\n        uint256 _timestamp,\n        uint256 _size,\n        uint256 _tipjar,\n        uint256 _views,\n        address payable _publisher) public videoExists(_ipfsHash)\n    {\n        \n        Video memory video = Video( _ipfsHash, _title, _timestamp, _size, _tipjar, _views, _publisher);\n        videos[_ipfsHash] = video;\n        publishers[_publisher].videos[_ipfsHash] = video;\n    }\n    \n    function DB_get(string memory _ipfsHash) public view videoExists(_ipfsHash) returns(Video memory) \n    {\n        Video storage video = videos[_ipfsHash];\n        return video;\n    }\n\n    function DB_get_id(uint256 _id) public view returns(Video memory) {\n        Video storage video = videosList[_id];\n        return video;\n    }\n    \n    function DB_delete(string memory _ipfsHash, address _publisher) public videoExists(_ipfsHash)\n    {\n        \n        delete videos[_ipfsHash];\n        delete publishers[_publisher];\n    }\n    \n    function DB_tipMade(\n        uint256 _amount,\n        string memory _ipfsHash,\n        address payable _publisher) public videoExists(_ipfsHash) \n    {\n        require(_amount > 0, \"DB_err : 0 tip\");\n        require(videos[_ipfsHash].publisher != address(0) , \"Videos does not exist\");\n        \n        videos[_ipfsHash].tipjar += _amount;\n        publishers[_publisher].videos[_ipfsHash].tipjar ++;\n        publishers[_publisher].tipjar ++;\n    }\n}\n\n\n\ncontract Benzin is Station {\n    address private owner;\n    \n    event newVideo(string ipfsHash, string message);\n    event tipMade(uint256 amount, string ipfsHash, address sender);\n    \n    constructor() public{\n        owner = msg.sender;\n    }\n    \n    modifier isOwner {\n        require(msg.sender == owner);\n       _; \n    }\n    \n    function tip(string memory _ipfsHash, address payable _publisher) public payable videoExists(_ipfsHash) {\n        require(msg.value > 0, '0-tip err.');\n        require(_publisher != address(0), 'invalid address');\n        DB_tipMade(msg.value, _ipfsHash, _publisher);\n        \n        emit tipMade(msg.value, _ipfsHash, msg.sender);\n    }\n    \n    function addVideo(\n        string memory _ipfsHash,\n        string memory _title,\n        uint256 _timestamp,\n        uint256 _size,\n        address payable _publisher)\n        public\n    {\n        require(msg.sender == _publisher, 'you must send the video using your own address');\n        require(_size > 0, \"size err\");\n        DB_insert(_ipfsHash, _title, _timestamp, _size, 0, 0, _publisher);\n        emit newVideo(_ipfsHash, \"Video added successfully\");\n    }\n    \n    function getVideo(string memory _ipfsHash) public view videoExists(_ipfsHash) returns(Video memory) {\n        return DB_get(_ipfsHash);\n    }\n\n    function getVideoByID(uint256 _videoId) public view returns(Video memory) {\n        return DB_get_id(_videoId);\n    }\n\n    function getVideoCounter() public view returns(uint256) {\n        return videoCounter;\n    }\n    \n    // function editVide() {}\n    // function deleteVideo(){}\n    \n}\n",
  "sourcePath": "/Users/mehradkavian/Dropbox/George-Brown/dApp2/BENZIN/contracts/Benzin.sol",
  "compiler": {
    "name": "solc",
    "version": "0.5.0+commit.1d4f565a.Emscripten.clang"
  },
  "schemaVersion": "3.0.3",
  "updatedAt": "2019-08-17T02:36:27.854Z",
  "devdoc": {
    "methods": {}
  },
  "userdoc": {
    "methods": {}
  }
}