{
  "contractName": "Station",
  "abi": [
    {
      "constant": true,
      "inputs": [
        {
          "name": "",
          "type": "address"
        }
      ],
      "name": "publishers",
      "outputs": [
        {
          "name": "length",
          "type": "uint256"
        },
        {
          "name": "tipjar",
          "type": "uint256"
        }
      ],
      "payable": false,
      "stateMutability": "view",
      "type": "function"
    },
    {
      "constant": false,
      "inputs": [
        {
          "name": "_ipfsHash",
          "type": "string"
        },
        {
          "name": "_title",
          "type": "string"
        },
        {
          "name": "_timestamp",
          "type": "uint256"
        },
        {
          "name": "_size",
          "type": "uint256"
        },
        {
          "name": "_tipjar",
          "type": "uint256"
        },
        {
          "name": "_views",
          "type": "uint256"
        },
        {
          "name": "_publisher",
          "type": "address"
        }
      ],
      "name": "DB_insert",
      "outputs": [],
      "payable": false,
      "stateMutability": "nonpayable",
      "type": "function"
    },
    {
      "constant": false,
      "inputs": [
        {
          "name": "_ipfsHash",
          "type": "string"
        },
        {
          "name": "_title",
          "type": "string"
        },
        {
          "name": "_timestamp",
          "type": "uint256"
        },
        {
          "name": "_size",
          "type": "uint256"
        },
        {
          "name": "_tipjar",
          "type": "uint256"
        },
        {
          "name": "_views",
          "type": "uint256"
        },
        {
          "name": "_publisher",
          "type": "address"
        }
      ],
      "name": "DB_update",
      "outputs": [],
      "payable": false,
      "stateMutability": "nonpayable",
      "type": "function"
    },
    {
      "constant": true,
      "inputs": [
        {
          "name": "_ipfsHash",
          "type": "string"
        }
      ],
      "name": "DB_get",
      "outputs": [
        {
          "components": [
            {
              "name": "ipfsHash",
              "type": "string"
            },
            {
              "name": "title",
              "type": "string"
            },
            {
              "name": "timeStamp",
              "type": "uint256"
            },
            {
              "name": "size",
              "type": "uint256"
            },
            {
              "name": "tipjar",
              "type": "uint256"
            },
            {
              "name": "views",
              "type": "uint256"
            },
            {
              "name": "publisher",
              "type": "address"
            }
          ],
          "name": "",
          "type": "tuple"
        }
      ],
      "payable": false,
      "stateMutability": "view",
      "type": "function"
    },
    {
      "constant": false,
      "inputs": [
        {
          "name": "_ipfsHash",
          "type": "string"
        },
        {
          "name": "_publisher",
          "type": "address"
        }
      ],
      "name": "DB_delete",
      "outputs": [],
      "payable": false,
      "stateMutability": "nonpayable",
      "type": "function"
    },
    {
      "constant": false,
      "inputs": [
        {
          "name": "_amount",
          "type": "uint256"
        },
        {
          "name": "_ipfsHash",
          "type": "string"
        },
        {
          "name": "_publisher",
          "type": "address"
        }
      ],
      "name": "DB_tipMade",
      "outputs": [],
      "payable": false,
      "stateMutability": "nonpayable",
      "type": "function"
    }
  ],
  "bytecode": "0x608060405234801561001057600080fd5b50611912806100206000396000f3fe608060405260043610610078576000357c0100000000000000000000000000000000000000000000000000000000900463ffffffff1680630a4d85cd1461007d5780630fef4815146100bb5780632149db5b146100e4578063590782821461010d5780636cfed0821461014a5780638045124814610173575b600080fd5b34801561008957600080fd5b506100a4600480360361009f91908101906113d4565b61019c565b6040516100b292919061178e565b60405180910390f35b3480156100c757600080fd5b506100e260048036036100dd9190810190611492565b6101c0565b005b3480156100f057600080fd5b5061010b60048036036101069190810190611492565b6104de565b005b34801561011957600080fd5b50610134600480360361012f91908101906113fd565b6108ad565b604051610141919061176c565b60405180910390f35b34801561015657600080fd5b50610171600480360361016c9190810190611560565b610bfd565b005b34801561017f57600080fd5b5061019a6004803603610195919081019061143e565b610fd5565b005b60006020528060005260406000206000915090508060000154908060010154905082565b6101c8611201565b60e0604051908101604052808981526020018881526020018781526020018681526020018581526020018481526020018373ffffffffffffffffffffffffffffffffffffffff168152509050806001896040518082805190602001908083835b60208310151561024d5780518252602082019150602081019050602083039250610228565b6001836020036101000a0380198251168184511680821785525050505050509050019150509081526020016040518091039020600082015181600001908051906020019061029c929190611255565b5060208201518160010190805190602001906102b9929190611255565b5060408201518160020155606082015181600301556080820151816004015560a0820151816005015560c08201518160060160006101000a81548173ffffffffffffffffffffffffffffffffffffffff021916908373ffffffffffffffffffffffffffffffffffffffff1602179055509050506000808373ffffffffffffffffffffffffffffffffffffffff1673ffffffffffffffffffffffffffffffffffffffff16815260200190815260200160002060000160008154809291906001019190505550806000808473ffffffffffffffffffffffffffffffffffffffff1673ffffffffffffffffffffffffffffffffffffffff168152602001908152602001600020600201896040518082805190602001908083835b6020831015156103f557805182526020820191506020810190506020830392506103d0565b6001836020036101000a03801982511681845116808217855250505050505090500191505090815260200160405180910390206000820151816000019080519060200190610444929190611255565b506020820151816001019080519060200190610461929190611255565b5060408201518160020155606082015181600301556080820151816004015560a0820151816005015560c08201518160060160006101000a81548173ffffffffffffffffffffffffffffffffffffffff021916908373ffffffffffffffffffffffffffffffffffffffff1602179055509050505050505050505050565b86600073ffffffffffffffffffffffffffffffffffffffff166001826040518082805190602001908083835b60208310151561052f578051825260208201915060208101905060208303925061050a565b6001836020036101000a038019825116818451168082178552505050505050905001915050908152602001604051809103902060060160009054906101000a900473ffffffffffffffffffffffffffffffffffffffff1673ffffffffffffffffffffffffffffffffffffffff16141515156105df576040517f08c379a00000000000000000000000000000000000000000000000000000000081526004016105d69061172c565b60405180910390fd5b6105e7611201565b60e0604051908101604052808a81526020018981526020018881526020018781526020018681526020018581526020018473ffffffffffffffffffffffffffffffffffffffff1681525090508060018a6040518082805190602001908083835b60208310151561066c5780518252602082019150602081019050602083039250610647565b6001836020036101000a038019825116818451168082178552505050505050905001915050908152602001604051809103902060008201518160000190805190602001906106bb929190611255565b5060208201518160010190805190602001906106d8929190611255565b5060408201518160020155606082015181600301556080820151816004015560a0820151816005015560c08201518160060160006101000a81548173ffffffffffffffffffffffffffffffffffffffff021916908373ffffffffffffffffffffffffffffffffffffffff160217905550905050806000808573ffffffffffffffffffffffffffffffffffffffff1673ffffffffffffffffffffffffffffffffffffffff1681526020019081526020016000206002018a6040518082805190602001908083835b6020831015156107c3578051825260208201915060208101905060208303925061079e565b6001836020036101000a03801982511681845116808217855250505050505090500191505090815260200160405180910390206000820151816000019080519060200190610812929190611255565b50602082015181600101908051906020019061082f929190611255565b5060408201518160020155606082015181600301556080820151816004015560a0820151816005015560c08201518160060160006101000a81548173ffffffffffffffffffffffffffffffffffffffff021916908373ffffffffffffffffffffffffffffffffffffffff160217905550905050505050505050505050565b6108b5611201565b81600073ffffffffffffffffffffffffffffffffffffffff166001826040518082805190602001908083835b60208310151561090657805182526020820191506020810190506020830392506108e1565b6001836020036101000a038019825116818451168082178552505050505050905001915050908152602001604051809103902060060160009054906101000a900473ffffffffffffffffffffffffffffffffffffffff1673ffffffffffffffffffffffffffffffffffffffff16141515156109b6576040517f08c379a00000000000000000000000000000000000000000000000000000000081526004016109ad9061172c565b60405180910390fd5b60006001846040518082805190602001908083835b6020831015156109f057805182526020820191506020810190506020830392506109cb565b6001836020036101000a038019825116818451168082178552505050505050905001915050908152602001604051809103902090508060e06040519081016040529081600082018054600181600116156101000203166002900480601f016020809104026020016040519081016040528092919081815260200182805460018160011615610100020316600290048015610acb5780601f10610aa057610100808354040283529160200191610acb565b820191906000526020600020905b815481529060010190602001808311610aae57829003601f168201915b50505050508152602001600182018054600181600116156101000203166002900480601f016020809104026020016040519081016040528092919081815260200182805460018160011615610100020316600290048015610b6d5780601f10610b4257610100808354040283529160200191610b6d565b820191906000526020600020905b815481529060010190602001808311610b5057829003601f168201915b50505050508152602001600282015481526020016003820154815260200160048201548152602001600582015481526020016006820160009054906101000a900473ffffffffffffffffffffffffffffffffffffffff1673ffffffffffffffffffffffffffffffffffffffff1673ffffffffffffffffffffffffffffffffffffffff168152505092505050919050565b81600073ffffffffffffffffffffffffffffffffffffffff166001826040518082805190602001908083835b602083101515610c4e5780518252602082019150602081019050602083039250610c29565b6001836020036101000a038019825116818451168082178552505050505050905001915050908152602001604051809103902060060160009054906101000a900473ffffffffffffffffffffffffffffffffffffffff1673ffffffffffffffffffffffffffffffffffffffff1614151515610cfe576040517f08c379a0000000000000000000000000000000000000000000000000000000008152600401610cf59061172c565b60405180910390fd5b600084111515610d43576040517f08c379a0000000000000000000000000000000000000000000000000000000008152600401610d3a9061174c565b60405180910390fd5b600073ffffffffffffffffffffffffffffffffffffffff166001846040518082805190602001908083835b602083101515610d935780518252602082019150602081019050602083039250610d6e565b6001836020036101000a038019825116818451168082178552505050505050905001915050908152602001604051809103902060060160009054906101000a900473ffffffffffffffffffffffffffffffffffffffff1673ffffffffffffffffffffffffffffffffffffffff1614151515610e43576040517f08c379a0000000000000000000000000000000000000000000000000000000008152600401610e3a9061172c565b60405180910390fd5b6001836040518082805190602001908083835b602083101515610e7b5780518252602082019150602081019050602083039250610e56565b6001836020036101000a0380198251168184511680821785525050505050509050019150509081526020016040518091039020600401600081548092919060010191905055506000808373ffffffffffffffffffffffffffffffffffffffff1673ffffffffffffffffffffffffffffffffffffffff168152602001908152602001600020600201836040518082805190602001908083835b602083101515610f385780518252602082019150602081019050602083039250610f13565b6001836020036101000a0380198251168184511680821785525050505050509050019150509081526020016040518091039020600401600081548092919060010191905055506000808373ffffffffffffffffffffffffffffffffffffffff1673ffffffffffffffffffffffffffffffffffffffff1681526020019081526020016000206001016000815480929190600101919050555050505050565b81600073ffffffffffffffffffffffffffffffffffffffff166001826040518082805190602001908083835b6020831015156110265780518252602082019150602081019050602083039250611001565b6001836020036101000a038019825116818451168082178552505050505050905001915050908152602001604051809103902060060160009054906101000a900473ffffffffffffffffffffffffffffffffffffffff1673ffffffffffffffffffffffffffffffffffffffff16141515156110d6576040517f08c379a00000000000000000000000000000000000000000000000000000000081526004016110cd9061172c565b60405180910390fd5b6001836040518082805190602001908083835b60208310151561110e57805182526020820191506020810190506020830392506110e9565b6001836020036101000a03801982511681845116808217855250505050505090500191505090815260200160405180910390206000808201600061115291906112d5565b60018201600061116291906112d5565b60028201600090556003820160009055600482016000905560058201600090556006820160006101000a81549073ffffffffffffffffffffffffffffffffffffffff021916905550506000808373ffffffffffffffffffffffffffffffffffffffff1673ffffffffffffffffffffffffffffffffffffffff16815260200190815260200160002060008082016000905560018201600090555050505050565b60e060405190810160405280606081526020016060815260200160008152602001600081526020016000815260200160008152602001600073ffffffffffffffffffffffffffffffffffffffff1681525090565b828054600181600116156101000203166002900490600052602060002090601f016020900481019282601f1061129657805160ff19168380011785556112c4565b828001600101855582156112c4579182015b828111156112c35782518255916020019190600101906112a8565b5b5090506112d1919061131d565b5090565b50805460018160011615610100020316600290046000825580601f106112fb575061131a565b601f016020900490600052602060002090810190611319919061131d565b5b50565b61133f91905b8082111561133b576000816000905550600101611323565b5090565b90565b600061134e8235611857565b905092915050565b60006113628235611869565b905092915050565b600082601f830112151561137d57600080fd5b813561139061138b826117e4565b6117b7565b915080825260208301602083018583830111156113ac57600080fd5b6113b7838284611885565b50505092915050565b60006113cc823561187b565b905092915050565b6000602082840312156113e657600080fd5b60006113f484828501611342565b91505092915050565b60006020828403121561140f57600080fd5b600082013567ffffffffffffffff81111561142957600080fd5b6114358482850161136a565b91505092915050565b6000806040838503121561145157600080fd5b600083013567ffffffffffffffff81111561146b57600080fd5b6114778582860161136a565b925050602061148885828601611342565b9150509250929050565b600080600080600080600060e0888a0312156114ad57600080fd5b600088013567ffffffffffffffff8111156114c757600080fd5b6114d38a828b0161136a565b975050602088013567ffffffffffffffff8111156114f057600080fd5b6114fc8a828b0161136a565b965050604061150d8a828b016113c0565b955050606061151e8a828b016113c0565b945050608061152f8a828b016113c0565b93505060a06115408a828b016113c0565b92505060c06115518a828b01611356565b91505092959891949750929550565b60008060006060848603121561157557600080fd5b6000611583868287016113c0565b935050602084013567ffffffffffffffff8111156115a057600080fd5b6115ac8682870161136a565b92505060406115bd86828701611356565b9150509250925092565b6115d08161181b565b82525050565b60006115e182611810565b8084526115f5816020860160208601611894565b6115fe816118c7565b602085010191505092915050565b6000601582527f566964656f7320646f6573206e6f7420657869737400000000000000000000006020830152604082019050919050565b6000600e82527f44425f657272203a2030207469700000000000000000000000000000000000006020830152604082019050919050565b600060e083016000830151848203600086015261169782826115d6565b915050602083015184820360208601526116b182826115d6565b91505060408301516116c6604086018261171d565b5060608301516116d9606086018261171d565b5060808301516116ec608086018261171d565b5060a08301516116ff60a086018261171d565b5060c083015161171260c08601826115c7565b508091505092915050565b6117268161184d565b82525050565b600060208201905081810360008301526117458161160c565b9050919050565b6000602082019050818103600083015261176581611643565b9050919050565b60006020820190508181036000830152611786818461167a565b905092915050565b60006040820190506117a3600083018561171d565b6117b0602083018461171d565b9392505050565b6000604051905081810181811067ffffffffffffffff821117156117da57600080fd5b8060405250919050565b600067ffffffffffffffff8211156117fb57600080fd5b601f19601f8301169050602081019050919050565b600081519050919050565b60006118268261182d565b9050919050565b600073ffffffffffffffffffffffffffffffffffffffff82169050919050565b6000819050919050565b60006118628261182d565b9050919050565b60006118748261182d565b9050919050565b6000819050919050565b82818337600083830152505050565b60005b838110156118b2578082015181840152602081019050611897565b838111156118c1576000848401525b50505050565b6000601f19601f830116905091905056fea265627a7a72305820a37ead1c36684044d2576a99940bedbb13b23527f1536efddd24fc23148c317f6c6578706572696d656e74616cf50037",
  "source": "pragma solidity ^0.5.0;\npragma experimental ABIEncoderV2;\n\ncontract Station {\n    \n    struct Video {\n        string ipfsHash;\n        string title;\n        uint256 timeStamp;\n        uint256 size;\n        uint256 tipjar;\n        uint256 views;\n        address payable publisher;\n    }\n    \n    struct UserVideoList {\n        uint256 length; // total videos\n        uint256 tipjar;\n        mapping(string => Video) videos; // IPFS hash\n    }\n    \n    //mapping(address => uint256) jarShelf; // having track of how many tips received by the publisher\n    //The jarShelf mapping was removed because I think it should be about videos. Later we can get all the videos.\n    \n    mapping(address => UserVideoList) public publishers; // listing all videos of each publisher\n    \n    mapping(string => Video) videos; // IPFS HASH\n    \n    modifier videoExists(string memory _ipfsHash) {\n        require(videos[_ipfsHash].publisher != address(0) , \"Videos does not exist\");\n        _;\n    }\n    \n    function DB_insert(\n        string memory _ipfsHash,\n        string memory _title,\n        uint256 _timestamp,\n        uint256 _size,\n        uint256 _tipjar,\n        uint256 _views,\n        address payable _publisher\n    ) public {\n        Video memory video = Video( _ipfsHash, _title, _timestamp, _size, _tipjar, _views, _publisher);\n        videos[_ipfsHash] = video;\n        //increasing the length of videos\n        publishers[_publisher].length++;\n        publishers[_publisher].videos[_ipfsHash] = video;\n    }\n    \n    function DB_update(\n        string memory _ipfsHash,\n        string memory _title,\n        uint256 _timestamp,\n        uint256 _size,\n        uint256 _tipjar,\n        uint256 _views,\n        address payable _publisher) public videoExists(_ipfsHash)\n    {\n        \n        Video memory video = Video( _ipfsHash, _title, _timestamp, _size, _tipjar, _views, _publisher);\n        videos[_ipfsHash] = video;\n        publishers[_publisher].videos[_ipfsHash] = video;\n    }\n    \n    function DB_get(string memory _ipfsHash) public view videoExists(_ipfsHash) returns(Video memory) \n    {\n        Video storage video = videos[_ipfsHash];\n        return video;\n    }\n    \n    function DB_delete(string memory _ipfsHash, address _publisher) public videoExists(_ipfsHash)\n    {\n        \n        delete videos[_ipfsHash];\n        delete publishers[_publisher];\n    }\n    \n    function DB_tipMade(\n        uint256 _amount,\n        string memory _ipfsHash,\n        address payable _publisher) public videoExists(_ipfsHash) \n    {\n        require(_amount > 0, \"DB_err : 0 tip\");\n        require(videos[_ipfsHash].publisher != address(0) , \"Videos does not exist\");\n        \n        videos[_ipfsHash].tipjar ++;\n        publishers[_publisher].videos[_ipfsHash].tipjar ++;\n        publishers[_publisher].tipjar ++;\n    }\n}\n\n\n\ncontract Benzin is Station {\n    address private owner;\n    \n    event newVideo(string ipfsHash, string message);\n    event tipMade(uint256 amount, string ipfsHash, address sender);\n    \n    constructor() public{\n        owner = msg.sender;\n    }\n    \n    modifier isOwner {\n        require(msg.sender == owner);\n       _; \n    }\n    \n    function tip(address payable _publisher, string memory _ipfsHash) public payable {\n        require(msg.value > 0, '0-tip err.');\n        require(_publisher != address(0), 'invalid address');\n        DB_tipMade(msg.value, _ipfsHash, _publisher);\n        \n        emit tipMade(msg.value, _ipfsHash, msg.sender);\n    }\n    \n    function addVideo(\n        string memory _ipfsHash,\n        string memory _title,\n        uint256 _timestamp,\n        uint256 _size,\n        address payable _publisher)\n        public\n    {\n        require(msg.sender == _publisher, 'you must send the video using your own address');\n        require(_size > 0 && _timestamp < now);\n        DB_insert(_ipfsHash, _title, _timestamp, _size, 0, 0, _publisher);\n        emit newVideo(_ipfsHash, \"Video added successfully\");\n    }\n    \n    function getVideo(string memory _ipfsHash) public view videoExists(_ipfsHash) returns(Video memory) {\n        return DB_get(_ipfsHash);\n    }\n    \n    // function editVide() {}\n    // function deleteVideo(){}\n    \n}\n",
  "sourcePath": "/Users/mehradkavian/Dropbox/George-Brown/dApp2/BENZIN/contracts/Benzin.sol",
  "compiler": {
    "name": "solc",
    "version": "0.5.0+commit.1d4f565a.Emscripten.clang"
  },
  "schemaVersion": "3.0.3",
  "updatedAt": "2019-08-16T01:17:11.081Z",
  "devdoc": {
    "methods": {}
  },
  "userdoc": {
    "methods": {}
  }
}