{
  "contractName": "Station",
  "abi": [
    {
      "constant": true,
      "inputs": [
        {
          "name": "",
          "type": "address"
        }
      ],
      "name": "publishers",
      "outputs": [
        {
          "name": "length",
          "type": "uint256"
        },
        {
          "name": "tipjar",
          "type": "uint256"
        }
      ],
      "payable": false,
      "stateMutability": "view",
      "type": "function"
    },
    {
      "constant": true,
      "inputs": [],
      "name": "videoCounter",
      "outputs": [
        {
          "name": "",
          "type": "uint256"
        }
      ],
      "payable": false,
      "stateMutability": "view",
      "type": "function"
    },
    {
      "constant": false,
      "inputs": [
        {
          "name": "_ipfsHash",
          "type": "string"
        },
        {
          "name": "_title",
          "type": "string"
        },
        {
          "name": "_timestamp",
          "type": "uint256"
        },
        {
          "name": "_size",
          "type": "uint256"
        },
        {
          "name": "_tipjar",
          "type": "uint256"
        },
        {
          "name": "_views",
          "type": "uint256"
        },
        {
          "name": "_publisher",
          "type": "address"
        }
      ],
      "name": "DB_insert",
      "outputs": [],
      "payable": false,
      "stateMutability": "nonpayable",
      "type": "function"
    },
    {
      "constant": false,
      "inputs": [
        {
          "name": "_ipfsHash",
          "type": "string"
        },
        {
          "name": "_title",
          "type": "string"
        },
        {
          "name": "_timestamp",
          "type": "uint256"
        },
        {
          "name": "_size",
          "type": "uint256"
        },
        {
          "name": "_tipjar",
          "type": "uint256"
        },
        {
          "name": "_views",
          "type": "uint256"
        },
        {
          "name": "_publisher",
          "type": "address"
        }
      ],
      "name": "DB_update",
      "outputs": [],
      "payable": false,
      "stateMutability": "nonpayable",
      "type": "function"
    },
    {
      "constant": true,
      "inputs": [
        {
          "name": "_ipfsHash",
          "type": "string"
        }
      ],
      "name": "DB_get",
      "outputs": [
        {
          "components": [
            {
              "name": "ipfsHash",
              "type": "string"
            },
            {
              "name": "title",
              "type": "string"
            },
            {
              "name": "timeStamp",
              "type": "uint256"
            },
            {
              "name": "size",
              "type": "uint256"
            },
            {
              "name": "tipjar",
              "type": "uint256"
            },
            {
              "name": "views",
              "type": "uint256"
            },
            {
              "name": "publisher",
              "type": "address"
            }
          ],
          "name": "",
          "type": "tuple"
        }
      ],
      "payable": false,
      "stateMutability": "view",
      "type": "function"
    },
    {
      "constant": true,
      "inputs": [
        {
          "name": "_id",
          "type": "uint256"
        }
      ],
      "name": "DB_get_id",
      "outputs": [
        {
          "components": [
            {
              "name": "ipfsHash",
              "type": "string"
            },
            {
              "name": "title",
              "type": "string"
            },
            {
              "name": "timeStamp",
              "type": "uint256"
            },
            {
              "name": "size",
              "type": "uint256"
            },
            {
              "name": "tipjar",
              "type": "uint256"
            },
            {
              "name": "views",
              "type": "uint256"
            },
            {
              "name": "publisher",
              "type": "address"
            }
          ],
          "name": "",
          "type": "tuple"
        }
      ],
      "payable": false,
      "stateMutability": "view",
      "type": "function"
    },
    {
      "constant": false,
      "inputs": [
        {
          "name": "_ipfsHash",
          "type": "string"
        },
        {
          "name": "_publisher",
          "type": "address"
        }
      ],
      "name": "DB_delete",
      "outputs": [],
      "payable": false,
      "stateMutability": "nonpayable",
      "type": "function"
    },
    {
      "constant": false,
      "inputs": [
        {
          "name": "_amount",
          "type": "uint256"
        },
        {
          "name": "_ipfsHash",
          "type": "string"
        },
        {
          "name": "_publisher",
          "type": "address"
        }
      ],
      "name": "DB_tipMade",
      "outputs": [],
      "payable": false,
      "stateMutability": "nonpayable",
      "type": "function"
    }
  ],
  "bytecode": "0x608060405234801561001057600080fd5b50611c23806100206000396000f3fe60806040526004361061008e576000357c0100000000000000000000000000000000000000000000000000000000900463ffffffff1680630a4d85cd146100935780630fef4815146100d15780632149db5b146100fa578063492bb9b514610123578063590782821461014e5780636cfed0821461018b578063736c4c8b146101b457806380451248146101f1575b600080fd5b34801561009f57600080fd5b506100ba60048036036100b591908101906116a1565b61021a565b6040516100c8929190611a9f565b60405180910390f35b3480156100dd57600080fd5b506100f860048036036100f3919081019061175f565b61023e565b005b34801561010657600080fd5b50610121600480360361011c919081019061175f565b6106e5565b005b34801561012f57600080fd5b50610138610a67565b6040516101459190611a84565b60405180910390f35b34801561015a57600080fd5b50610175600480360361017091908101906116ca565b610a6d565b6040516101829190611a62565b60405180910390f35b34801561019757600080fd5b506101b260048036036101ad9190810190611856565b610d70565b005b3480156101c057600080fd5b506101db60048036036101d6919081019061182d565b6110f9565b6040516101e89190611a62565b60405180910390f35b3480156101fd57600080fd5b506102186004803603610213919081019061170b565b6112ef565b005b60006020528060005260406000206000915090508060000154908060010154905082565b8660006001826040518082805190602001908083835b6020831015156102795780518252602082019150602081019050602083039250610254565b6001836020036101000a0380198251168184511680821785525050505050509050019150509081526020016040518091039020600301541415156102f2576040517f08c379a00000000000000000000000000000000000000000000000000000000081526004016102e990611a22565b60405180910390fd5b6102fa6114ce565b60e0604051908101604052808a81526020018981526020018881526020018781526020018681526020018581526020018473ffffffffffffffffffffffffffffffffffffffff1681525090508060018a6040518082805190602001908083835b60208310151561037f578051825260208201915060208101905060208303925061035a565b6001836020036101000a038019825116818451168082178552505050505050905001915050908152602001604051809103902060008201518160000190805190602001906103ce929190611522565b5060208201518160010190805190602001906103eb929190611522565b5060408201518160020155606082015181600301556080820151816004015560a0820151816005015560c08201518160060160006101000a81548173ffffffffffffffffffffffffffffffffffffffff021916908373ffffffffffffffffffffffffffffffffffffffff1602179055509050506003600081548092919060010191905055508060026000600354815260200190815260200160002060008201518160000190805190602001906104a2929190611522565b5060208201518160010190805190602001906104bf929190611522565b5060408201518160020155606082015181600301556080820151816004015560a0820151816005015560c08201518160060160006101000a81548173ffffffffffffffffffffffffffffffffffffffff021916908373ffffffffffffffffffffffffffffffffffffffff1602179055509050506000808473ffffffffffffffffffffffffffffffffffffffff1673ffffffffffffffffffffffffffffffffffffffff16815260200190815260200160002060000160008154809291906001019190505550806000808573ffffffffffffffffffffffffffffffffffffffff1673ffffffffffffffffffffffffffffffffffffffff1681526020019081526020016000206002018a6040518082805190602001908083835b6020831015156105fb57805182526020820191506020810190506020830392506105d6565b6001836020036101000a0380198251168184511680821785525050505050509050019150509081526020016040518091039020600082015181600001908051906020019061064a929190611522565b506020820151816001019080519060200190610667929190611522565b5060408201518160020155606082015181600301556080820151816004015560a0820151816005015560c08201518160060160006101000a81548173ffffffffffffffffffffffffffffffffffffffff021916908373ffffffffffffffffffffffffffffffffffffffff160217905550905050505050505050505050565b8660006001826040518082805190602001908083835b60208310151561072057805182526020820191506020810190506020830392506106fb565b6001836020036101000a038019825116818451168082178552505050505050905001915050908152602001604051809103902060030154111515610799576040517f08c379a000000000000000000000000000000000000000000000000000000000815260040161079090611a22565b60405180910390fd5b6107a16114ce565b60e0604051908101604052808a81526020018981526020018881526020018781526020018681526020018581526020018473ffffffffffffffffffffffffffffffffffffffff1681525090508060018a6040518082805190602001908083835b6020831015156108265780518252602082019150602081019050602083039250610801565b6001836020036101000a03801982511681845116808217855250505050505090500191505090815260200160405180910390206000820151816000019080519060200190610875929190611522565b506020820151816001019080519060200190610892929190611522565b5060408201518160020155606082015181600301556080820151816004015560a0820151816005015560c08201518160060160006101000a81548173ffffffffffffffffffffffffffffffffffffffff021916908373ffffffffffffffffffffffffffffffffffffffff160217905550905050806000808573ffffffffffffffffffffffffffffffffffffffff1673ffffffffffffffffffffffffffffffffffffffff1681526020019081526020016000206002018a6040518082805190602001908083835b60208310151561097d5780518252602082019150602081019050602083039250610958565b6001836020036101000a038019825116818451168082178552505050505050905001915050908152602001604051809103902060008201518160000190805190602001906109cc929190611522565b5060208201518160010190805190602001906109e9929190611522565b5060408201518160020155606082015181600301556080820151816004015560a0820151816005015560c08201518160060160006101000a81548173ffffffffffffffffffffffffffffffffffffffff021916908373ffffffffffffffffffffffffffffffffffffffff160217905550905050505050505050505050565b60035481565b610a756114ce565b8160006001826040518082805190602001908083835b602083101515610ab05780518252602082019150602081019050602083039250610a8b565b6001836020036101000a038019825116818451168082178552505050505050905001915050908152602001604051809103902060030154111515610b29576040517f08c379a0000000000000000000000000000000000000000000000000000000008152600401610b2090611a22565b60405180910390fd5b60006001846040518082805190602001908083835b602083101515610b635780518252602082019150602081019050602083039250610b3e565b6001836020036101000a038019825116818451168082178552505050505050905001915050908152602001604051809103902090508060e06040519081016040529081600082018054600181600116156101000203166002900480601f016020809104026020016040519081016040528092919081815260200182805460018160011615610100020316600290048015610c3e5780601f10610c1357610100808354040283529160200191610c3e565b820191906000526020600020905b815481529060010190602001808311610c2157829003601f168201915b50505050508152602001600182018054600181600116156101000203166002900480601f016020809104026020016040519081016040528092919081815260200182805460018160011615610100020316600290048015610ce05780601f10610cb557610100808354040283529160200191610ce0565b820191906000526020600020905b815481529060010190602001808311610cc357829003601f168201915b50505050508152602001600282015481526020016003820154815260200160048201548152602001600582015481526020016006820160009054906101000a900473ffffffffffffffffffffffffffffffffffffffff1673ffffffffffffffffffffffffffffffffffffffff1673ffffffffffffffffffffffffffffffffffffffff168152505092505050919050565b8160006001826040518082805190602001908083835b602083101515610dab5780518252602082019150602081019050602083039250610d86565b6001836020036101000a038019825116818451168082178552505050505050905001915050908152602001604051809103902060030154111515610e24576040517f08c379a0000000000000000000000000000000000000000000000000000000008152600401610e1b90611a22565b60405180910390fd5b600084111515610e69576040517f08c379a0000000000000000000000000000000000000000000000000000000008152600401610e6090611a42565b60405180910390fd5b600073ffffffffffffffffffffffffffffffffffffffff166001846040518082805190602001908083835b602083101515610eb95780518252602082019150602081019050602083039250610e94565b6001836020036101000a038019825116818451168082178552505050505050905001915050908152602001604051809103902060060160009054906101000a900473ffffffffffffffffffffffffffffffffffffffff1673ffffffffffffffffffffffffffffffffffffffff1614151515610f69576040517f08c379a0000000000000000000000000000000000000000000000000000000008152600401610f6090611a22565b60405180910390fd5b836001846040518082805190602001908083835b602083101515610fa25780518252602082019150602081019050602083039250610f7d565b6001836020036101000a0380198251168184511680821785525050505050509050019150509081526020016040518091039020600401600082825401925050819055506000808373ffffffffffffffffffffffffffffffffffffffff1673ffffffffffffffffffffffffffffffffffffffff168152602001908152602001600020600201836040518082805190602001908083835b60208310151561105c5780518252602082019150602081019050602083039250611037565b6001836020036101000a0380198251168184511680821785525050505050509050019150509081526020016040518091039020600401600081548092919060010191905055506000808373ffffffffffffffffffffffffffffffffffffffff1673ffffffffffffffffffffffffffffffffffffffff1681526020019081526020016000206001016000815480929190600101919050555050505050565b6111016114ce565b60006002600084815260200190815260200160002090508060e06040519081016040529081600082018054600181600116156101000203166002900480601f0160208091040260200160405190810160405280929190818152602001828054600181600116156101000203166002900480156111be5780601f10611193576101008083540402835291602001916111be565b820191906000526020600020905b8154815290600101906020018083116111a157829003601f168201915b50505050508152602001600182018054600181600116156101000203166002900480601f0160208091040260200160405190810160405280929190818152602001828054600181600116156101000203166002900480156112605780601f1061123557610100808354040283529160200191611260565b820191906000526020600020905b81548152906001019060200180831161124357829003601f168201915b50505050508152602001600282015481526020016003820154815260200160048201548152602001600582015481526020016006820160009054906101000a900473ffffffffffffffffffffffffffffffffffffffff1673ffffffffffffffffffffffffffffffffffffffff1673ffffffffffffffffffffffffffffffffffffffff1681525050915050919050565b8160006001826040518082805190602001908083835b60208310151561132a5780518252602082019150602081019050602083039250611305565b6001836020036101000a0380198251168184511680821785525050505050509050019150509081526020016040518091039020600301541115156113a3576040517f08c379a000000000000000000000000000000000000000000000000000000000815260040161139a90611a22565b60405180910390fd5b6001836040518082805190602001908083835b6020831015156113db57805182526020820191506020810190506020830392506113b6565b6001836020036101000a03801982511681845116808217855250505050505090500191505090815260200160405180910390206000808201600061141f91906115a2565b60018201600061142f91906115a2565b60028201600090556003820160009055600482016000905560058201600090556006820160006101000a81549073ffffffffffffffffffffffffffffffffffffffff021916905550506000808373ffffffffffffffffffffffffffffffffffffffff1673ffffffffffffffffffffffffffffffffffffffff16815260200190815260200160002060008082016000905560018201600090555050505050565b60e060405190810160405280606081526020016060815260200160008152602001600081526020016000815260200160008152602001600073ffffffffffffffffffffffffffffffffffffffff1681525090565b828054600181600116156101000203166002900490600052602060002090601f016020900481019282601f1061156357805160ff1916838001178555611591565b82800160010185558215611591579182015b82811115611590578251825591602001919060010190611575565b5b50905061159e91906115ea565b5090565b50805460018160011615610100020316600290046000825580601f106115c857506115e7565b601f0160209004906000526020600020908101906115e691906115ea565b5b50565b61160c91905b808211156116085760008160009055506001016115f0565b5090565b90565b600061161b8235611b68565b905092915050565b600061162f8235611b7a565b905092915050565b600082601f830112151561164a57600080fd5b813561165d61165882611af5565b611ac8565b9150808252602083016020830185838301111561167957600080fd5b611684838284611b96565b50505092915050565b60006116998235611b8c565b905092915050565b6000602082840312156116b357600080fd5b60006116c18482850161160f565b91505092915050565b6000602082840312156116dc57600080fd5b600082013567ffffffffffffffff8111156116f657600080fd5b61170284828501611637565b91505092915050565b6000806040838503121561171e57600080fd5b600083013567ffffffffffffffff81111561173857600080fd5b61174485828601611637565b92505060206117558582860161160f565b9150509250929050565b600080600080600080600060e0888a03121561177a57600080fd5b600088013567ffffffffffffffff81111561179457600080fd5b6117a08a828b01611637565b975050602088013567ffffffffffffffff8111156117bd57600080fd5b6117c98a828b01611637565b96505060406117da8a828b0161168d565b95505060606117eb8a828b0161168d565b94505060806117fc8a828b0161168d565b93505060a061180d8a828b0161168d565b92505060c061181e8a828b01611623565b91505092959891949750929550565b60006020828403121561183f57600080fd5b600061184d8482850161168d565b91505092915050565b60008060006060848603121561186b57600080fd5b60006118798682870161168d565b935050602084013567ffffffffffffffff81111561189657600080fd5b6118a286828701611637565b92505060406118b386828701611623565b9150509250925092565b6118c681611b2c565b82525050565b60006118d782611b21565b8084526118eb816020860160208601611ba5565b6118f481611bd8565b602085010191505092915050565b6000601582527f566964656f7320646f6573206e6f7420657869737400000000000000000000006020830152604082019050919050565b6000600e82527f44425f657272203a2030207469700000000000000000000000000000000000006020830152604082019050919050565b600060e083016000830151848203600086015261198d82826118cc565b915050602083015184820360208601526119a782826118cc565b91505060408301516119bc6040860182611a13565b5060608301516119cf6060860182611a13565b5060808301516119e26080860182611a13565b5060a08301516119f560a0860182611a13565b5060c0830151611a0860c08601826118bd565b508091505092915050565b611a1c81611b5e565b82525050565b60006020820190508181036000830152611a3b81611902565b9050919050565b60006020820190508181036000830152611a5b81611939565b9050919050565b60006020820190508181036000830152611a7c8184611970565b905092915050565b6000602082019050611a996000830184611a13565b92915050565b6000604082019050611ab46000830185611a13565b611ac16020830184611a13565b9392505050565b6000604051905081810181811067ffffffffffffffff82111715611aeb57600080fd5b8060405250919050565b600067ffffffffffffffff821115611b0c57600080fd5b601f19601f8301169050602081019050919050565b600081519050919050565b6000611b3782611b3e565b9050919050565b600073ffffffffffffffffffffffffffffffffffffffff82169050919050565b6000819050919050565b6000611b7382611b3e565b9050919050565b6000611b8582611b3e565b9050919050565b6000819050919050565b82818337600083830152505050565b60005b83811015611bc3578082015181840152602081019050611ba8565b83811115611bd2576000848401525b50505050565b6000601f19601f830116905091905056fea265627a7a723058204eedfa574eccc072576ca34f70d04b5c06a9b12d0dec0048f0cf13ac251141a36c6578706572696d656e74616cf50037",
  "source": "pragma solidity ^0.5.0;\npragma experimental ABIEncoderV2;\n\ncontract Station {\n    \n    struct Video {\n        string ipfsHash;\n        string title;\n        uint256 timeStamp;\n        uint256 size;\n        uint256 tipjar;\n        uint256 views;\n        address payable publisher;\n    }\n    \n    struct UserVideoList {\n        uint256 length; // total videos\n        uint256 tipjar;\n        mapping(string => Video) videos; // IPFS hash\n    }\n    \n    //mapping(address => uint256) jarShelf; // having track of how many tips received by the publisher\n    //The jarShelf mapping was removed because I think it should be about videos. Later we can get all the videos.\n    \n    mapping(address => UserVideoList) public publishers; // listing all videos of each publisher\n    \n    mapping(string => Video) videos; // IPFS HASH\n    mapping(uint256 => Video) videosList;\n    uint256 public videoCounter;\n    \n    modifier videoExists(string memory _ipfsHash) {\n        require(videos[_ipfsHash].size >0 , \"Videos does not exist\");\n        _;\n    }\n\n    modifier videoNotExists(string memory _ipfsHash) {\n        require(videos[_ipfsHash].size == 0 , \"Videos does not exist\");\n        _;\n    }\n    \n    function DB_insert(\n        string memory _ipfsHash,\n        string memory _title,\n        uint256 _timestamp,\n        uint256 _size,\n        uint256 _tipjar,\n        uint256 _views,\n        address payable _publisher\n    ) public videoNotExists(_ipfsHash) {\n        Video memory video = Video( _ipfsHash, _title, _timestamp, _size, _tipjar, _views, _publisher);\n        videos[_ipfsHash] = video;\n        //increasing the length of videos\n        videoCounter++;\n        videosList[videoCounter] = video;\n        publishers[_publisher].length++;\n        publishers[_publisher].videos[_ipfsHash] = video;\n    }\n    \n    function DB_update(\n        string memory _ipfsHash,\n        string memory _title,\n        uint256 _timestamp,\n        uint256 _size,\n        uint256 _tipjar,\n        uint256 _views,\n        address payable _publisher) public videoExists(_ipfsHash)\n    {\n        \n        Video memory video = Video( _ipfsHash, _title, _timestamp, _size, _tipjar, _views, _publisher);\n        videos[_ipfsHash] = video;\n        publishers[_publisher].videos[_ipfsHash] = video;\n    }\n    \n    function DB_get(string memory _ipfsHash) public view videoExists(_ipfsHash) returns(Video memory) \n    {\n        Video storage video = videos[_ipfsHash];\n        return video;\n    }\n\n    function DB_get_id(uint256 _id) public view returns(Video memory) {\n        Video storage video = videosList[_id];\n        return video;\n    }\n    \n    function DB_delete(string memory _ipfsHash, address _publisher) public videoExists(_ipfsHash)\n    {\n        \n        delete videos[_ipfsHash];\n        delete publishers[_publisher];\n    }\n    \n    function DB_tipMade(\n        uint256 _amount,\n        string memory _ipfsHash,\n        address payable _publisher) public videoExists(_ipfsHash) \n    {\n        require(_amount > 0, \"DB_err : 0 tip\");\n        require(videos[_ipfsHash].publisher != address(0) , \"Videos does not exist\");\n        \n        videos[_ipfsHash].tipjar += _amount;\n        publishers[_publisher].videos[_ipfsHash].tipjar ++;\n        publishers[_publisher].tipjar ++;\n    }\n}\n\n\n\ncontract Benzin is Station {\n    address private owner;\n    \n    event newVideo(string ipfsHash, string message);\n    event tipMade(uint256 amount, string ipfsHash, address sender);\n    \n    constructor() public{\n        owner = msg.sender;\n    }\n    \n    modifier isOwner {\n        require(msg.sender == owner);\n       _; \n    }\n    \n    function tip(string memory _ipfsHash, address payable _publisher) public payable videoExists(_ipfsHash) {\n        require(msg.value > 0, '0-tip err.');\n        require(_publisher != address(0), 'invalid address');\n        DB_tipMade(msg.value, _ipfsHash, _publisher);\n        \n        emit tipMade(msg.value, _ipfsHash, msg.sender);\n    }\n    \n    function addVideo(\n        string memory _ipfsHash,\n        string memory _title,\n        uint256 _timestamp,\n        uint256 _size,\n        address payable _publisher)\n        public\n    {\n        require(msg.sender == _publisher, 'you must send the video using your own address');\n        require(_size > 0, \"size err\");\n        DB_insert(_ipfsHash, _title, _timestamp, _size, 0, 0, _publisher);\n        emit newVideo(_ipfsHash, \"Video added successfully\");\n    }\n    \n    function getVideo(string memory _ipfsHash) public view videoExists(_ipfsHash) returns(Video memory) {\n        return DB_get(_ipfsHash);\n    }\n\n    function getVideoByID(uint256 _videoId) public view returns(Video memory) {\n        return DB_get_id(_videoId);\n    }\n\n    function getVideoCounter() public view returns(uint256) {\n        return videoCounter;\n    }\n    \n    // function editVide() {}\n    // function deleteVideo(){}\n    \n}\n",
  "sourcePath": "/Users/mehradkavian/Dropbox/George-Brown/dApp2/BENZIN/contracts/Benzin.sol",
  "compiler": {
    "name": "solc",
    "version": "0.5.0+commit.1d4f565a.Emscripten.clang"
  },
  "schemaVersion": "3.0.3",
  "updatedAt": "2019-08-17T02:36:27.865Z",
  "devdoc": {
    "methods": {}
  },
  "userdoc": {
    "methods": {}
  }
}